{
  "contractName": "AfterworkByLaCity240622",
  "abi": [
    {
      "inputs": [],
      "stateMutability": "nonpayable",
      "type": "constructor"
    },
    {
      "anonymous": false,
      "inputs": [
        {
          "indexed": true,
          "internalType": "address",
          "name": "owner",
          "type": "address"
        },
        {
          "indexed": true,
          "internalType": "address",
          "name": "approved",
          "type": "address"
        },
        {
          "indexed": true,
          "internalType": "uint256",
          "name": "tokenId",
          "type": "uint256"
        }
      ],
      "name": "Approval",
      "type": "event"
    },
    {
      "anonymous": false,
      "inputs": [
        {
          "indexed": true,
          "internalType": "address",
          "name": "owner",
          "type": "address"
        },
        {
          "indexed": true,
          "internalType": "address",
          "name": "operator",
          "type": "address"
        },
        {
          "indexed": false,
          "internalType": "bool",
          "name": "approved",
          "type": "bool"
        }
      ],
      "name": "ApprovalForAll",
      "type": "event"
    },
    {
      "anonymous": false,
      "inputs": [
        {
          "indexed": true,
          "internalType": "address",
          "name": "previousOwner",
          "type": "address"
        },
        {
          "indexed": true,
          "internalType": "address",
          "name": "newOwner",
          "type": "address"
        }
      ],
      "name": "OwnershipTransferred",
      "type": "event"
    },
    {
      "anonymous": false,
      "inputs": [
        {
          "indexed": true,
          "internalType": "address",
          "name": "from",
          "type": "address"
        },
        {
          "indexed": true,
          "internalType": "address",
          "name": "to",
          "type": "address"
        },
        {
          "indexed": true,
          "internalType": "uint256",
          "name": "tokenId",
          "type": "uint256"
        }
      ],
      "name": "Transfer",
      "type": "event"
    },
    {
      "inputs": [
        {
          "internalType": "address",
          "name": "to",
          "type": "address"
        },
        {
          "internalType": "uint256",
          "name": "tokenId",
          "type": "uint256"
        }
      ],
      "name": "approve",
      "outputs": [],
      "stateMutability": "nonpayable",
      "type": "function"
    },
    {
      "inputs": [
        {
          "internalType": "address",
          "name": "owner",
          "type": "address"
        }
      ],
      "name": "balanceOf",
      "outputs": [
        {
          "internalType": "uint256",
          "name": "",
          "type": "uint256"
        }
      ],
      "stateMutability": "view",
      "type": "function",
      "constant": true
    },
    {
      "inputs": [],
      "name": "baseURI",
      "outputs": [
        {
          "internalType": "string",
          "name": "",
          "type": "string"
        }
      ],
      "stateMutability": "view",
      "type": "function",
      "constant": true
    },
    {
      "inputs": [
        {
          "internalType": "uint256",
          "name": "tokenId",
          "type": "uint256"
        }
      ],
      "name": "getApproved",
      "outputs": [
        {
          "internalType": "address",
          "name": "",
          "type": "address"
        }
      ],
      "stateMutability": "view",
      "type": "function",
      "constant": true
    },
    {
      "inputs": [
        {
          "internalType": "address",
          "name": "owner",
          "type": "address"
        },
        {
          "internalType": "address",
          "name": "operator",
          "type": "address"
        }
      ],
      "name": "isApprovedForAll",
      "outputs": [
        {
          "internalType": "bool",
          "name": "",
          "type": "bool"
        }
      ],
      "stateMutability": "view",
      "type": "function",
      "constant": true
    },
    {
      "inputs": [],
      "name": "name",
      "outputs": [
        {
          "internalType": "string",
          "name": "",
          "type": "string"
        }
      ],
      "stateMutability": "view",
      "type": "function",
      "constant": true
    },
    {
      "inputs": [],
      "name": "owner",
      "outputs": [
        {
          "internalType": "address",
          "name": "",
          "type": "address"
        }
      ],
      "stateMutability": "view",
      "type": "function",
      "constant": true
    },
    {
      "inputs": [
        {
          "internalType": "uint256",
          "name": "tokenId",
          "type": "uint256"
        }
      ],
      "name": "ownerOf",
      "outputs": [
        {
          "internalType": "address",
          "name": "",
          "type": "address"
        }
      ],
      "stateMutability": "view",
      "type": "function",
      "constant": true
    },
    {
      "inputs": [],
      "name": "renounceOwnership",
      "outputs": [],
      "stateMutability": "nonpayable",
      "type": "function"
    },
    {
      "inputs": [
        {
          "internalType": "address",
          "name": "from",
          "type": "address"
        },
        {
          "internalType": "address",
          "name": "to",
          "type": "address"
        },
        {
          "internalType": "uint256",
          "name": "tokenId",
          "type": "uint256"
        }
      ],
      "name": "safeTransferFrom",
      "outputs": [],
      "stateMutability": "nonpayable",
      "type": "function"
    },
    {
      "inputs": [
        {
          "internalType": "address",
          "name": "from",
          "type": "address"
        },
        {
          "internalType": "address",
          "name": "to",
          "type": "address"
        },
        {
          "internalType": "uint256",
          "name": "tokenId",
          "type": "uint256"
        },
        {
          "internalType": "bytes",
          "name": "_data",
          "type": "bytes"
        }
      ],
      "name": "safeTransferFrom",
      "outputs": [],
      "stateMutability": "nonpayable",
      "type": "function"
    },
    {
      "inputs": [
        {
          "internalType": "address",
          "name": "operator",
          "type": "address"
        },
        {
          "internalType": "bool",
          "name": "approved",
          "type": "bool"
        }
      ],
      "name": "setApprovalForAll",
      "outputs": [],
      "stateMutability": "nonpayable",
      "type": "function"
    },
    {
      "inputs": [
        {
          "internalType": "bytes4",
          "name": "interfaceId",
          "type": "bytes4"
        }
      ],
      "name": "supportsInterface",
      "outputs": [
        {
          "internalType": "bool",
          "name": "",
          "type": "bool"
        }
      ],
      "stateMutability": "view",
      "type": "function",
      "constant": true
    },
    {
      "inputs": [],
      "name": "symbol",
      "outputs": [
        {
          "internalType": "string",
          "name": "",
          "type": "string"
        }
      ],
      "stateMutability": "view",
      "type": "function",
      "constant": true
    },
    {
      "inputs": [
        {
          "internalType": "address",
          "name": "from",
          "type": "address"
        },
        {
          "internalType": "address",
          "name": "to",
          "type": "address"
        },
        {
          "internalType": "uint256",
          "name": "tokenId",
          "type": "uint256"
        }
      ],
      "name": "transferFrom",
      "outputs": [],
      "stateMutability": "nonpayable",
      "type": "function"
    },
    {
      "inputs": [
        {
          "internalType": "address",
          "name": "newOwner",
          "type": "address"
        }
      ],
      "name": "transferOwnership",
      "outputs": [],
      "stateMutability": "nonpayable",
      "type": "function"
    },
    {
      "inputs": [],
      "name": "getParticipants",
      "outputs": [
        {
          "internalType": "address[]",
          "name": "",
          "type": "address[]"
        }
      ],
      "stateMutability": "view",
      "type": "function",
      "constant": true
    },
    {
      "inputs": [
        {
          "internalType": "address",
          "name": "targetAddress",
          "type": "address"
        }
      ],
      "name": "drop",
      "outputs": [],
      "stateMutability": "nonpayable",
      "type": "function"
    },
    {
      "inputs": [],
      "name": "totalSupply",
      "outputs": [
        {
          "internalType": "uint256",
          "name": "",
          "type": "uint256"
        }
      ],
      "stateMutability": "view",
      "type": "function",
      "constant": true
    },
    {
      "inputs": [
        {
          "internalType": "address",
          "name": "targetAddress",
          "type": "address"
        }
      ],
      "name": "getBalance",
      "outputs": [
        {
          "internalType": "uint256",
          "name": "",
          "type": "uint256"
        }
      ],
      "stateMutability": "view",
      "type": "function",
      "constant": true
    },
    {
      "inputs": [
        {
          "internalType": "uint256",
          "name": "tokenId",
          "type": "uint256"
        }
      ],
      "name": "tokenURI",
      "outputs": [
        {
          "internalType": "string",
          "name": "",
          "type": "string"
        }
      ],
      "stateMutability": "view",
      "type": "function",
      "constant": true
    },
    {
      "inputs": [],
      "name": "contractURI",
      "outputs": [
        {
          "internalType": "string",
          "name": "",
          "type": "string"
        }
      ],
      "stateMutability": "pure",
      "type": "function",
      "constant": true
    },
    {
      "inputs": [
        {
          "internalType": "address",
          "name": "targetAddress",
          "type": "address"
        }
      ],
      "name": "dropForOrganizer",
      "outputs": [],
      "stateMutability": "nonpayable",
      "type": "function"
    },
    {
      "inputs": [
        {
          "internalType": "uint256",
          "name": "newValue",
          "type": "uint256"
        }
      ],
      "name": "updateBeerPongAvailable",
      "outputs": [],
      "stateMutability": "nonpayable",
      "type": "function"
    },
    {
      "inputs": [
        {
          "internalType": "address",
          "name": "winner",
          "type": "address"
        }
      ],
      "name": "beerPong",
      "outputs": [],
      "stateMutability": "nonpayable",
      "type": "function"
    }
  ],
  "bytecode": "0x600060085560e0604052603a60808181529062001d9e60a03980516200002e91600a916020909101906200014a565b506000600b55600a600c556000600d553480156200004b57600080fd5b50604080518082018252601e81527f4166746572776f726b206279204c6143697479202d2032342f30362f3232000060208083019182528351808501909452601284527120ab902620a1a4aa2c90191a17981b17991960711b908401528151919291620000bb916000916200014a565b508051620000d19060019060208401906200014a565b505050620000ee620000e8620000f460201b60201c565b620000f8565b6200022c565b3390565b600680546001600160a01b038381166001600160a01b0319831681179093556040519116919082907f8be0079c531659141344cd1fd0a4f28419497f9722a3daafe3b4186f6b6457e090600090a35050565b8280546200015890620001f0565b90600052602060002090601f0160209004810192826200017c5760008555620001c7565b82601f106200019757805160ff1916838001178555620001c7565b82800160010185558215620001c7579182015b82811115620001c7578251825591602001919060010190620001aa565b50620001d5929150620001d9565b5090565b5b80821115620001d55760008155600101620001da565b600181811c908216806200020557607f821691505b6020821081036200022657634e487b7160e01b600052602260045260246000fd5b50919050565b611b62806200023c6000396000f3fe608060405234801561001057600080fd5b50600436106101735760003560e01c806370a08231116100de578063b88d4fde11610097578063e985e9c511610071578063e985e9c51461030f578063f2fde38b1461034b578063f8b2cb4f1461035e578063faa6ad011461038757600080fd5b8063b88d4fde146102e1578063c87b56dd146102f4578063e8a3d4851461030757600080fd5b806370a0823114610287578063715018a61461029a5780638da5cb5b146102a257806391f2700a146102b357806395d89b41146102c6578063a22cb465146102ce57600080fd5b806342842e0e1161013057806342842e0e1461021e57806343723785146102315780635aa68ac0146102445780636352211e1461025957806365eadf1f1461026c5780636c0360eb1461027f57600080fd5b806301ffc9a71461017857806306fdde03146101a0578063081812fc146101b5578063095ea7b3146101e057806318160ddd146101f557806323b872dd1461020b575b600080fd5b61018b6101863660046114f5565b61039a565b60405190151581526020015b60405180910390f35b6101a86103ec565b6040516101979190611571565b6101c86101c3366004611584565b61047e565b6040516001600160a01b039091168152602001610197565b6101f36101ee3660046115b9565b610518565b005b6101fd61062d565b604051908152602001610197565b6101f36102193660046115e3565b610643565b6101f361022c3660046115e3565b610674565b6101f361023f366004611584565b61068f565b61024c6106be565b604051610197919061161f565b6101c8610267366004611584565b61071f565b6101f361027a36600461166c565b610796565b6101a86107ee565b6101fd61029536600461166c565b61087c565b6101f3610903565b6006546001600160a01b03166101c8565b6101f36102c136600461166c565b610969565b6101a8610ac0565b6101f36102dc366004611687565b610acf565b6101f36102ef3660046116d9565b610ade565b6101a8610302366004611584565b610b16565b6101a8610baf565b61018b61031d3660046117b5565b6001600160a01b03918216600090815260056020908152604080832093909416825291909152205460ff1690565b6101f361035936600461166c565b610bcf565b6101fd61036c36600461166c565b6001600160a01b031660009081526009602052604090205490565b6101f361039536600461166c565b610c97565b60006001600160e01b031982166380ac58cd60e01b14806103cb57506001600160e01b03198216635b5e139f60e01b145b806103e657506301ffc9a760e01b6001600160e01b03198316145b92915050565b6060600080546103fb906117e8565b80601f0160208091040260200160405190810160405280929190818152602001828054610427906117e8565b80156104745780601f1061044957610100808354040283529160200191610474565b820191906000526020600020905b81548152906001019060200180831161045757829003601f168201915b5050505050905090565b6000818152600260205260408120546001600160a01b03166104fc5760405162461bcd60e51b815260206004820152602c60248201527f4552433732313a20617070726f76656420717565727920666f72206e6f6e657860448201526b34b9ba32b73a103a37b5b2b760a11b60648201526084015b60405180910390fd5b506000908152600460205260409020546001600160a01b031690565b60006105238261071f565b9050806001600160a01b0316836001600160a01b0316036105905760405162461bcd60e51b815260206004820152602160248201527f4552433732313a20617070726f76616c20746f2063757272656e74206f776e656044820152603960f91b60648201526084016104f3565b336001600160a01b03821614806105ac57506105ac813361031d565b61061e5760405162461bcd60e51b815260206004820152603860248201527f4552433732313a20617070726f76652063616c6c6572206973206e6f74206f7760448201527f6e6572206e6f7220617070726f76656420666f7220616c6c000000000000000060648201526084016104f3565b6106288383610d47565b505050565b6000600854600161063e9190611838565b905090565b61064d3382610db5565b6106695760405162461bcd60e51b81526004016104f390611850565b610628838383610eac565b61062883838360405180602001604052806000815250610ade565b6006546001600160a01b031633146106b95760405162461bcd60e51b81526004016104f3906118a1565b600c55565b6060600780548060200260200160405190810160405280929190818152602001828054801561047457602002820191906000526020600020905b81546001600160a01b031681526001909101906020018083116106f8575050505050905090565b6000818152600260205260408120546001600160a01b0316806103e65760405162461bcd60e51b815260206004820152602960248201527f4552433732313a206f776e657220717565727920666f72206e6f6e657869737460448201526832b73a103a37b5b2b760b91b60648201526084016104f3565b6006546001600160a01b031633146107c05760405162461bcd60e51b81526004016104f3906118a1565b600b80546107eb9183919060006107d6836118c6565b909155506107e690610bb8611838565b611048565b50565b600a80546107fb906117e8565b80601f0160208091040260200160405190810160405280929190818152602001828054610827906117e8565b80156108745780601f1061084957610100808354040283529160200191610874565b820191906000526020600020905b81548152906001019060200180831161085757829003601f168201915b505050505081565b60006001600160a01b0382166108e75760405162461bcd60e51b815260206004820152602a60248201527f4552433732313a2062616c616e636520717565727920666f7220746865207a65604482015269726f206164647265737360b01b60648201526084016104f3565b506001600160a01b031660009081526003602052604090205490565b6006546001600160a01b0316331461095d5760405162461bcd60e51b815260206004820181905260248201527f4f776e61626c653a2063616c6c6572206973206e6f7420746865206f776e657260448201526064016104f3565b610967600061118a565b565b6006546001600160a01b031633146109935760405162461bcd60e51b81526004016104f3906118a1565b6001600160a01b038116600090815260096020526040902054156109ed5760405162461bcd60e51b815260206004820152601160248201527006e6f20746f6b656e7320746f2064726f7607c1b60448201526064016104f3565b610bb860085410610a305760405162461bcd60e51b815260206004820152600d60248201526c746f6f206d616e79206e66747360981b60448201526064016104f3565b6001600160a01b0381166000908152600960205260408120805491610a54836118c6565b90915550506007805460018101825560009182527fa66cc928b5edb82af9bd49922954155ab7b0942694bea4ce44661d9a8736c6880180546001600160a01b0319166001600160a01b038416179055600880546107eb92849290610ab7836118c6565b91905055611048565b6060600180546103fb906117e8565b610ada3383836111dc565b5050565b610ae83383610db5565b610b045760405162461bcd60e51b81526004016104f390611850565b610b10848484846112aa565b50505050565b6000818152600260205260409020546060906001600160a01b0316610b7d5760405162461bcd60e51b815260206004820152601f60248201527f55524920717565727920666f72206e6f6e6578697374656e7420746f6b656e0060448201526064016104f3565b600a610b88836112dd565b604051602001610b999291906118fb565b6040516020818303038152906040529050919050565b6060604051806080016040528060498152602001611ae460499139905090565b6006546001600160a01b03163314610c295760405162461bcd60e51b815260206004820181905260248201527f4f776e61626c653a2063616c6c6572206973206e6f7420746865206f776e657260448201526064016104f3565b6001600160a01b038116610c8e5760405162461bcd60e51b815260206004820152602660248201527f4f776e61626c653a206e6577206f776e657220697320746865207a65726f206160448201526564647265737360d01b60648201526084016104f3565b6107eb8161118a565b6006546001600160a01b03163314610cc15760405162461bcd60e51b81526004016104f3906118a1565b6000600c5411610d0c5760405162461bcd60e51b81526020600482015260166024820152751899595c881c1bdb99c8185b1c9958591e481b5a5b9d60521b60448201526064016104f3565b600c8054906000610d1c836119b5565b9091555050600d80546107eb918391906000610d37836118c6565b909155506107e69061208f611838565b600081815260046020526040902080546001600160a01b0319166001600160a01b0384169081179091558190610d7c8261071f565b6001600160a01b03167f8c5be1e5ebec7d5bd14f71427d1e84f3dd0314c0f7b2291e5b200ac8c7c3b92560405160405180910390a45050565b6000818152600260205260408120546001600160a01b0316610e2e5760405162461bcd60e51b815260206004820152602c60248201527f4552433732313a206f70657261746f7220717565727920666f72206e6f6e657860448201526b34b9ba32b73a103a37b5b2b760a11b60648201526084016104f3565b6000610e398361071f565b9050806001600160a01b0316846001600160a01b03161480610e8057506001600160a01b0380821660009081526005602090815260408083209388168352929052205460ff165b80610ea45750836001600160a01b0316610e998461047e565b6001600160a01b0316145b949350505050565b826001600160a01b0316610ebf8261071f565b6001600160a01b031614610f235760405162461bcd60e51b815260206004820152602560248201527f4552433732313a207472616e736665722066726f6d20696e636f72726563742060448201526437bbb732b960d91b60648201526084016104f3565b6001600160a01b038216610f855760405162461bcd60e51b8152602060048201526024808201527f4552433732313a207472616e7366657220746f20746865207a65726f206164646044820152637265737360e01b60648201526084016104f3565b610f90600082610d47565b6001600160a01b0383166000908152600360205260408120805460019290610fb99084906119cc565b90915550506001600160a01b0382166000908152600360205260408120805460019290610fe7908490611838565b909155505060008181526002602052604080822080546001600160a01b0319166001600160a01b0386811691821790925591518493918716917fddf252ad1be2c89b69c2b068fc378daa952ba7f163c4a11628f55a4df523b3ef91a4505050565b6001600160a01b03821661109e5760405162461bcd60e51b815260206004820181905260248201527f4552433732313a206d696e7420746f20746865207a65726f206164647265737360448201526064016104f3565b6000818152600260205260409020546001600160a01b0316156111035760405162461bcd60e51b815260206004820152601c60248201527f4552433732313a20746f6b656e20616c7265616479206d696e7465640000000060448201526064016104f3565b6001600160a01b038216600090815260036020526040812080546001929061112c908490611838565b909155505060008181526002602052604080822080546001600160a01b0319166001600160a01b03861690811790915590518392907fddf252ad1be2c89b69c2b068fc378daa952ba7f163c4a11628f55a4df523b3ef908290a45050565b600680546001600160a01b038381166001600160a01b0319831681179093556040519116919082907f8be0079c531659141344cd1fd0a4f28419497f9722a3daafe3b4186f6b6457e090600090a35050565b816001600160a01b0316836001600160a01b03160361123d5760405162461bcd60e51b815260206004820152601960248201527f4552433732313a20617070726f766520746f2063616c6c65720000000000000060448201526064016104f3565b6001600160a01b03838116600081815260056020908152604080832094871680845294825291829020805460ff191686151590811790915591519182527f17307eab39ab6107e8899845ad3d59bd9653f200f220920489ca2b5937696c31910160405180910390a3505050565b6112b5848484610eac565b6112c1848484846113de565b610b105760405162461bcd60e51b81526004016104f3906119e3565b6060816000036113045750506040805180820190915260018152600360fc1b602082015290565b8160005b811561132e5780611318816118c6565b91506113279050600a83611a4b565b9150611308565b60008167ffffffffffffffff811115611349576113496116c3565b6040519080825280601f01601f191660200182016040528015611373576020820181803683370190505b5090505b8415610ea4576113886001836119cc565b9150611395600a86611a5f565b6113a0906030611838565b60f81b8183815181106113b5576113b5611a73565b60200101906001600160f81b031916908160001a9053506113d7600a86611a4b565b9450611377565b60006001600160a01b0384163b156114d457604051630a85bd0160e11b81526001600160a01b0385169063150b7a0290611422903390899088908890600401611a89565b6020604051808303816000875af192505050801561145d575060408051601f3d908101601f1916820190925261145a91810190611ac6565b60015b6114ba573d80801561148b576040519150601f19603f3d011682016040523d82523d6000602084013e611490565b606091505b5080516000036114b25760405162461bcd60e51b81526004016104f3906119e3565b805181602001fd5b6001600160e01b031916630a85bd0160e11b149050610ea4565b506001949350505050565b6001600160e01b0319811681146107eb57600080fd5b60006020828403121561150757600080fd5b8135611512816114df565b9392505050565b60005b8381101561153457818101518382015260200161151c565b83811115610b105750506000910152565b6000815180845261155d816020860160208601611519565b601f01601f19169290920160200192915050565b6020815260006115126020830184611545565b60006020828403121561159657600080fd5b5035919050565b80356001600160a01b03811681146115b457600080fd5b919050565b600080604083850312156115cc57600080fd5b6115d58361159d565b946020939093013593505050565b6000806000606084860312156115f857600080fd5b6116018461159d565b925061160f6020850161159d565b9150604084013590509250925092565b6020808252825182820181905260009190848201906040850190845b818110156116605783516001600160a01b03168352928401929184019160010161163b565b50909695505050505050565b60006020828403121561167e57600080fd5b6115128261159d565b6000806040838503121561169a57600080fd5b6116a38361159d565b9150602083013580151581146116b857600080fd5b809150509250929050565b634e487b7160e01b600052604160045260246000fd5b600080600080608085870312156116ef57600080fd5b6116f88561159d565b93506117066020860161159d565b925060408501359150606085013567ffffffffffffffff8082111561172a57600080fd5b818701915087601f83011261173e57600080fd5b813581811115611750576117506116c3565b604051601f8201601f19908116603f01168101908382118183101715611778576117786116c3565b816040528281528a602084870101111561179157600080fd5b82602086016020830137600060208483010152809550505050505092959194509250565b600080604083850312156117c857600080fd5b6117d18361159d565b91506117df6020840161159d565b90509250929050565b600181811c908216806117fc57607f821691505b60208210810361181c57634e487b7160e01b600052602260045260246000fd5b50919050565b634e487b7160e01b600052601160045260246000fd5b6000821982111561184b5761184b611822565b500190565b60208082526031908201527f4552433732313a207472616e736665722063616c6c6572206973206e6f74206f6040820152701ddb995c881b9bdc88185c1c1c9bdd9959607a1b606082015260800190565b6020808252600b908201526a1b9bdd08185b1b1bddd95960aa1b604082015260600190565b6000600182016118d8576118d8611822565b5060010190565b600081516118f1818560208601611519565b9290920192915050565b600080845481600182811c91508083168061191757607f831692505b6020808410820361193657634e487b7160e01b86526022600452602486fd5b81801561194a576001811461195b57611988565b60ff19861689528489019650611988565b60008b81526020902060005b868110156119805781548b820152908501908301611967565b505084890196505b5050505050506119ac61199b82866118df565b64173539b7b760d91b815260050190565b95945050505050565b6000816119c4576119c4611822565b506000190190565b6000828210156119de576119de611822565b500390565b60208082526032908201527f4552433732313a207472616e7366657220746f206e6f6e20455243373231526560408201527131b2b4bb32b91034b6b83632b6b2b73a32b960711b606082015260800190565b634e487b7160e01b600052601260045260246000fd5b600082611a5a57611a5a611a35565b500490565b600082611a6e57611a6e611a35565b500690565b634e487b7160e01b600052603260045260246000fd5b6001600160a01b0385811682528416602082015260408101839052608060608201819052600090611abc90830184611545565b9695505050505050565b600060208284031215611ad857600080fd5b8151611512816114df56fe68747470733a2f2f6173736f6c61636974792e66722f6173736574732f6e6674732f4166746572576f726b42794c61436974793234303632322f636f6c6c656374696f6e2e6a736f6ea26469706673582212202ded366425be061daff325b2d546ea4d251a89156936f6f3e355e0d3de80b69264736f6c634300080e003368747470733a2f2f6173736f6c61636974792e66722f6173736574732f6e6674732f4166746572576f726b42794c61436974793234303632322f",
  "immutableReferences": {},
  "source": "// SPDX-License-Identifier: MIT\r\npragma solidity >=0.4.22 <0.9.0;\r\n\r\nimport \"@openzeppelin/contracts/token/ERC721/ERC721.sol\";\r\nimport \"@openzeppelin/contracts/access/Ownable.sol\";\r\n\r\ncontract AfterworkByLaCity240622 is ERC721, Ownable {\r\n    function toString(uint256 value) internal pure returns (string memory) {\r\n        if (value == 0) {\r\n            return \"0\";\r\n        }\r\n        uint256 temp = value;\r\n        uint256 digits;\r\n        while (temp != 0) {\r\n            digits++;\r\n            temp /= 10;\r\n        }\r\n        bytes memory buffer = new bytes(digits);\r\n        while (value != 0) {\r\n            digits -= 1;\r\n            buffer[digits] = bytes1(uint8(48 + uint256(value % 10)));\r\n            value /= 10;\r\n        }\r\n        return string(buffer);\r\n    }\r\n\r\n    address[] private participants;\r\n\r\n    function getParticipants() public view returns (address[] memory) {\r\n        return participants;\r\n    }\r\n\r\n    uint256 private supply = 0;\r\n\r\n    mapping(address => uint256) private balances;\r\n\r\n    string public baseURI =\r\n        \"https://assolacity.fr/assets/nfts/AfterWorkByLaCity240622/\";\r\n\r\n    constructor()\r\n        ERC721(\"Afterwork by LaCity - 24/06/22\", \"AW LACITY 24/06/22\")\r\n    {}\r\n\r\n    function drop(address targetAddress) public {\r\n        require(msg.sender == owner(), \"not allowed\");\r\n        require(balances[targetAddress] == 0, \"no tokens to drop\");\r\n        require(supply < 3000, \"too many nfts\");\r\n        balances[targetAddress]++;\r\n        participants.push(targetAddress);\r\n        _mint(targetAddress, supply++);\r\n    }\r\n\r\n    function totalSupply() public view returns (uint256) {\r\n        return supply + 1;\r\n    }\r\n\r\n    function getBalance(address targetAddress) public view returns (uint256) {\r\n        return balances[targetAddress];\r\n    }\r\n\r\n    function tokenURI(uint256 tokenId)\r\n        public\r\n        view\r\n        override\r\n        returns (string memory)\r\n    {\r\n        require(_exists(tokenId), \"URI query for nonexistent token\");\r\n        return string(abi.encodePacked(baseURI, toString(tokenId), \".json\"));\r\n    }\r\n\r\n    function contractURI() public pure returns (string memory) {\r\n        return\r\n            \"https://assolacity.fr/assets/nfts/AfterWorkByLaCity240622/collection.json\";\r\n    }\r\n\r\n    uint256 organizersSupply = 0;\r\n\r\n    function dropForOrganizer(address targetAddress) public {\r\n        require(msg.sender == owner(), \"not allowed\");\r\n        _mint(targetAddress, 3000 + organizersSupply++);\r\n    }\r\n\r\n    uint256 beerPongAvailable = 10;\r\n    uint256 beerPongSupply = 0;\r\n\r\n    function updateBeerPongAvailable(uint256 newValue) public {\r\n        require(msg.sender == owner(), \"not allowed\");\r\n        beerPongAvailable = newValue;\r\n    }\r\n\r\n    function beerPong(address winner) public {\r\n        require(msg.sender == owner(), \"not allowed\");\r\n        require(beerPongAvailable > 0, \"beer pong already mint\");\r\n        beerPongAvailable--;\r\n        _mint(winner, 8335 + beerPongSupply++);\r\n    }\r\n}\r\n",
  "sourcePath": "F:\\5thSemProj\\server\\nfts\\contracts\\AfterworkByLaCity240622.sol",
  "compiler": {
    "name": "solc",
    "version": "0.8.14+commit.80d49f37.Emscripten.clang"
  },
  "schemaVersion": "3.4.11",
  "updatedAt": "2022-12-09T05:10:08.232Z",
  "networkType": "ethereum",
  "devdoc": {
    "kind": "dev",
    "methods": {
      "approve(address,uint256)": {
        "details": "See {IERC721-approve}."
      },
      "balanceOf(address)": {
        "details": "See {IERC721-balanceOf}."
      },
      "getApproved(uint256)": {
        "details": "See {IERC721-getApproved}."
      },
      "isApprovedForAll(address,address)": {
        "details": "See {IERC721-isApprovedForAll}."
      },
      "name()": {
        "details": "See {IERC721Metadata-name}."
      },
      "owner()": {
        "details": "Returns the address of the current owner."
      },
      "ownerOf(uint256)": {
        "details": "See {IERC721-ownerOf}."
      },
      "renounceOwnership()": {
        "details": "Leaves the contract without owner. It will not be possible to call `onlyOwner` functions anymore. Can only be called by the current owner. NOTE: Renouncing ownership will leave the contract without an owner, thereby removing any functionality that is only available to the owner."
      },
      "safeTransferFrom(address,address,uint256)": {
        "details": "See {IERC721-safeTransferFrom}."
      },
      "safeTransferFrom(address,address,uint256,bytes)": {
        "details": "See {IERC721-safeTransferFrom}."
      },
      "setApprovalForAll(address,bool)": {
        "details": "See {IERC721-setApprovalForAll}."
      },
      "supportsInterface(bytes4)": {
        "details": "See {IERC165-supportsInterface}."
      },
      "symbol()": {
        "details": "See {IERC721Metadata-symbol}."
      },
      "tokenURI(uint256)": {
        "details": "See {IERC721Metadata-tokenURI}."
      },
      "transferFrom(address,address,uint256)": {
        "details": "See {IERC721-transferFrom}."
      },
      "transferOwnership(address)": {
        "details": "Transfers ownership of the contract to a new account (`newOwner`). Can only be called by the current owner."
      }
    },
    "version": 1
  },
  "userdoc": {
    "kind": "user",
    "methods": {},
    "version": 1
  }
}