{
  "contractName": "CredigibleCertificateFactory",
  "abi": [
    {
      "inputs": [],
      "stateMutability": "nonpayable",
      "type": "constructor"
    },
    {
      "anonymous": false,
      "inputs": [
        {
          "indexed": false,
          "internalType": "address",
          "name": "",
          "type": "address"
        }
      ],
      "name": "Create",
      "type": "event"
    },
    {
      "anonymous": false,
      "inputs": [
        {
          "indexed": true,
          "internalType": "address",
          "name": "previousOwner",
          "type": "address"
        },
        {
          "indexed": true,
          "internalType": "address",
          "name": "newOwner",
          "type": "address"
        }
      ],
      "name": "OwnershipTransferred",
      "type": "event"
    },
    {
      "anonymous": false,
      "inputs": [
        {
          "indexed": false,
          "internalType": "address",
          "name": "index",
          "type": "address"
        },
        {
          "indexed": false,
          "internalType": "address",
          "name": "",
          "type": "address"
        }
      ],
      "name": "UserCollectionCallback",
      "type": "event"
    },
    {
      "inputs": [
        {
          "internalType": "address",
          "name": "",
          "type": "address"
        }
      ],
      "name": "collectionList",
      "outputs": [
        {
          "internalType": "bool",
          "name": "",
          "type": "bool"
        }
      ],
      "stateMutability": "view",
      "type": "function",
      "constant": true
    },
    {
      "inputs": [],
      "name": "owner",
      "outputs": [
        {
          "internalType": "address",
          "name": "",
          "type": "address"
        }
      ],
      "stateMutability": "view",
      "type": "function",
      "constant": true
    },
    {
      "inputs": [],
      "name": "renounceOwnership",
      "outputs": [],
      "stateMutability": "nonpayable",
      "type": "function"
    },
    {
      "inputs": [
        {
          "internalType": "address",
          "name": "newOwner",
          "type": "address"
        }
      ],
      "name": "transferOwnership",
      "outputs": [],
      "stateMutability": "nonpayable",
      "type": "function"
    },
    {
      "inputs": [
        {
          "internalType": "address",
          "name": "",
          "type": "address"
        },
        {
          "internalType": "uint256",
          "name": "",
          "type": "uint256"
        }
      ],
      "name": "userCollections",
      "outputs": [
        {
          "internalType": "address",
          "name": "",
          "type": "address"
        }
      ],
      "stateMutability": "view",
      "type": "function",
      "constant": true
    },
    {
      "inputs": [
        {
          "internalType": "string",
          "name": "name",
          "type": "string"
        },
        {
          "internalType": "string",
          "name": "symbol",
          "type": "string"
        }
      ],
      "name": "create",
      "outputs": [
        {
          "internalType": "address",
          "name": "created",
          "type": "address"
        }
      ],
      "stateMutability": "nonpayable",
      "type": "function"
    },
    {
      "inputs": [
        {
          "internalType": "address",
          "name": "user",
          "type": "address"
        }
      ],
      "name": "getUserCollection",
      "outputs": [
        {
          "internalType": "address[]",
          "name": "",
          "type": "address[]"
        }
      ],
      "stateMutability": "view",
      "type": "function",
      "constant": true
    },
    {
      "inputs": [
        {
          "internalType": "address",
          "name": "user",
          "type": "address"
        }
      ],
      "name": "userCollectionCallback",
      "outputs": [],
      "stateMutability": "nonpayable",
      "type": "function"
    }
  ],
  "bytecode": "0x608060405234801561001057600080fd5b5061001a33610028565b61002333610028565b610078565b600080546001600160a01b038381166001600160a01b0319831681178455604051919092169283917f8be0079c531659141344cd1fd0a4f28419497f9722a3daafe3b4186f6b6457e09190a35050565b612a70806100876000396000f3fe60806040523480156200001157600080fd5b5060043610620000935760003560e01c8063715018a61162000062578063715018a614620001335780638da5cb5b146200013d578063c555f8d4146200014f578063f2fde38b146200017557600080fd5b8063198e2b8a14620000985780632f84317f14620000cc5780634236ed9e14620000e5578063428a6171146200011c575b600080fd5b620000af620000a936600462000597565b6200018c565b6040516001600160a01b0390911681526020015b60405180910390f35b620000e3620000dd36600462000627565b62000233565b005b6200010b620000f636600462000627565b60026020526000908152604090205460ff1681565b6040519015158152602001620000c3565b620000af6200012d3660046200064c565b62000301565b620000e36200033a565b6000546001600160a01b0316620000af565b620001666200016036600462000627565b620003a4565b604051620000c3919062000679565b620000e36200018636600462000627565b6200041c565b6000848484843330604051620001a2906200053d565b620001b396959493929190620006f1565b604051809103906000f080158015620001d0573d6000803e3d6000fd5b506001600160a01b038116600081815260026020908152604091829020805460ff1916600117905590519182529192507fe3758539c1bd6726422843471b2886c2d2cefd3b4aead6778386283e20a32a80910160405180910390a1949350505050565b3360009081526002602052604090205460ff166200028c5760405162461bcd60e51b81526020600482015260116024820152704e6f74206120636f6c6c656374696f6e2160781b60448201526064015b60405180910390fd5b6001600160a01b03811660008181526001602081815260408084208054938401815584529281902090910180546001600160a01b031916339081179091558251938452908301527f7baece54d03a3304bb823495fe62c5859eb35be5117c26c95ad648ce2e902888910160405180910390a150565b600160205281600052604060002081815481106200031e57600080fd5b6000918252602090912001546001600160a01b03169150829050565b6000546001600160a01b03163314620003965760405162461bcd60e51b815260206004820181905260248201527f4f776e61626c653a2063616c6c6572206973206e6f7420746865206f776e6572604482015260640162000283565b620003a26000620004ed565b565b6001600160a01b0381166000908152600160209081526040918290208054835181840281018401909452808452606093928301828280156200041057602002820191906000526020600020905b81546001600160a01b03168152600190910190602001808311620003f1575b50505050509050919050565b6000546001600160a01b03163314620004785760405162461bcd60e51b815260206004820181905260248201527f4f776e61626c653a2063616c6c6572206973206e6f7420746865206f776e6572604482015260640162000283565b6001600160a01b038116620004df5760405162461bcd60e51b815260206004820152602660248201527f4f776e61626c653a206e6577206f776e657220697320746865207a65726f206160448201526564647265737360d01b606482015260840162000283565b620004ea81620004ed565b50565b600080546001600160a01b038381166001600160a01b0319831681178455604051919092169283917f8be0079c531659141344cd1fd0a4f28419497f9722a3daafe3b4186f6b6457e09190a35050565b6122f7806200074483390190565b60008083601f8401126200055e57600080fd5b50813567ffffffffffffffff8111156200057757600080fd5b6020830191508360208285010111156200059057600080fd5b9250929050565b60008060008060408587031215620005ae57600080fd5b843567ffffffffffffffff80821115620005c757600080fd5b620005d5888389016200054b565b90965094506020870135915080821115620005ef57600080fd5b50620005fe878288016200054b565b95989497509550505050565b80356001600160a01b03811681146200062257600080fd5b919050565b6000602082840312156200063a57600080fd5b62000645826200060a565b9392505050565b600080604083850312156200066057600080fd5b6200066b836200060a565b946020939093013593505050565b6020808252825182820181905260009190848201906040850190845b81811015620006bc5783516001600160a01b03168352928401929184019160010162000695565b50909695505050505050565b81835281816020850137506000828201602090810191909152601f909101601f19169091010190565b6080815260006200070760808301888a620006c8565b82810360208401526200071c818789620006c8565b6001600160a01b03958616604085015293909416606090920191909152509594505050505056fe608060405260006008553480156200001657600080fd5b50604051620022f7380380620022f78339810160408190526200003991620002a0565b8351849084906200005290600090602085019062000110565b5080516200006890600190602084019062000110565b505050620000856200007f620000ba60201b60201c565b620000be565b6200009082620000be565b600780546001600160a01b0319166001600160a01b0392909216919091179055506200036b915050565b3390565b600680546001600160a01b038381166001600160a01b0319831681179093556040519116919082907f8be0079c531659141344cd1fd0a4f28419497f9722a3daafe3b4186f6b6457e090600090a35050565b8280546200011e906200032f565b90600052602060002090601f0160209004810192826200014257600085556200018d565b82601f106200015d57805160ff19168380011785556200018d565b828001600101855582156200018d579182015b828111156200018d57825182559160200191906001019062000170565b506200019b9291506200019f565b5090565b5b808211156200019b5760008155600101620001a0565b634e487b7160e01b600052604160045260246000fd5b600082601f830112620001de57600080fd5b81516001600160401b0380821115620001fb57620001fb620001b6565b604051601f8301601f19908116603f01168101908282118183101715620002265762000226620001b6565b816040528381526020925086838588010111156200024357600080fd5b600091505b8382101562000267578582018301518183018401529082019062000248565b83821115620002795760008385830101525b9695505050505050565b80516001600160a01b03811681146200029b57600080fd5b919050565b60008060008060808587031215620002b757600080fd5b84516001600160401b0380821115620002cf57600080fd5b620002dd88838901620001cc565b95506020870151915080821115620002f457600080fd5b506200030387828801620001cc565b935050620003146040860162000283565b9150620003246060860162000283565b905092959194509250565b600181811c908216806200034457607f821691505b6020821081036200036557634e487b7160e01b600052602260045260246000fd5b50919050565b611f7c806200037b6000396000f3fe608060405234801561001057600080fd5b50600436106101425760003560e01c8063715018a6116100b8578063a22cb4651161007c578063a22cb465146102d2578063b88d4fde146102e5578063c87b56dd146102f8578063e3684e391461030b578063e985e9c51461031e578063f2fde38b1461035a57600080fd5b8063715018a61461028b578063853d42ad146102935780638da5cb5b146102a657806395d89b41146102b7578063966dae0e146102bf57600080fd5b80633d6614531161010a5780633d661453146101d757806342842e0e1461020e57806346f3141c14610221578063516ed33e146102455780636352211e1461026557806370a082311461027857600080fd5b806301ffc9a71461014757806306fdde031461016f578063081812fc14610184578063095ea7b3146101af57806323b872dd146101c4575b600080fd5b61015a610155366004611887565b61036d565b60405190151581526020015b60405180910390f35b6101776103bf565b60405161016691906118fc565b61019761019236600461190f565b610451565b6040516001600160a01b039091168152602001610166565b6101c26101bd366004611944565b6104eb565b005b6101c26101d236600461196e565b610600565b6102006101e53660046119aa565b6001600160a01b031660009081526009602052604090205490565b604051908152602001610166565b6101c261021c36600461196e565b610631565b61023461022f366004611944565b61064c565b6040516101669594939291906119c5565b6102586102533660046119aa565b6107b6565b6040516101669190611a14565b61019761027336600461190f565b610979565b6102006102863660046119aa565b6109f0565b6101c2610a77565b6101c26102a1366004611b0f565b610aad565b6006546001600160a01b0316610197565b610177610dd0565b600754610197906001600160a01b031681565b6101c26102e0366004611b98565b610ddf565b6101c26102f3366004611bea565b610dee565b61017761030636600461190f565b610e26565b61023461031936600461190f565b610f0e565b61015a61032c366004611cc6565b6001600160a01b03918216600090815260056020908152604080832093909416825291909152205460ff1690565b6101c26103683660046119aa565b610f40565b60006001600160e01b031982166380ac58cd60e01b148061039e57506001600160e01b03198216635b5e139f60e01b145b806103b957506301ffc9a760e01b6001600160e01b03198316145b92915050565b6060600080546103ce90611cf9565b80601f01602080910402602001604051908101604052809291908181526020018280546103fa90611cf9565b80156104475780601f1061041c57610100808354040283529160200191610447565b820191906000526020600020905b81548152906001019060200180831161042a57829003601f168201915b5050505050905090565b6000818152600260205260408120546001600160a01b03166104cf5760405162461bcd60e51b815260206004820152602c60248201527f4552433732313a20617070726f76656420717565727920666f72206e6f6e657860448201526b34b9ba32b73a103a37b5b2b760a11b60648201526084015b60405180910390fd5b506000908152600460205260409020546001600160a01b031690565b60006104f682610979565b9050806001600160a01b0316836001600160a01b0316036105635760405162461bcd60e51b815260206004820152602160248201527f4552433732313a20617070726f76616c20746f2063757272656e74206f776e656044820152603960f91b60648201526084016104c6565b336001600160a01b038216148061057f575061057f813361032c565b6105f15760405162461bcd60e51b815260206004820152603860248201527f4552433732313a20617070726f76652063616c6c6572206973206e6f74206f7760448201527f6e6572206e6f7220617070726f76656420666f7220616c6c000000000000000060648201526084016104c6565b6105fb8383610fdb565b505050565b61060a3382611049565b6106265760405162461bcd60e51b81526004016104c690611d33565b6105fb838383611140565b6105fb83838360405180602001604052806000815250610dee565b600b602052816000526040600020818154811061066857600080fd5b60009182526020909120600590910201805460018201546002830180549295506001600160a01b0390911693509061069f90611cf9565b80601f01602080910402602001604051908101604052809291908181526020018280546106cb90611cf9565b80156107185780601f106106ed57610100808354040283529160200191610718565b820191906000526020600020905b8154815290600101906020018083116106fb57829003601f168201915b50505050509080600301805461072d90611cf9565b80601f016020809104026020016040519081016040528092919081815260200182805461075990611cf9565b80156107a65780601f1061077b576101008083540402835291602001916107a6565b820191906000526020600020905b81548152906001019060200180831161078957829003601f168201915b5050505050908060040154905085565b6001600160a01b0381166000908152600b60209081526040808320805482518185028101850190935280835260609492939192909184015b8282101561096e5760008481526020908190206040805160a081018252600586029092018054835260018101546001600160a01b0316938301939093526002830180549293929184019161084190611cf9565b80601f016020809104026020016040519081016040528092919081815260200182805461086d90611cf9565b80156108ba5780601f1061088f576101008083540402835291602001916108ba565b820191906000526020600020905b81548152906001019060200180831161089d57829003601f168201915b505050505081526020016003820180546108d390611cf9565b80601f01602080910402602001604051908101604052809291908181526020018280546108ff90611cf9565b801561094c5780601f106109215761010080835404028352916020019161094c565b820191906000526020600020905b81548152906001019060200180831161092f57829003601f168201915b50505050508152602001600482015481525050815260200190600101906107ee565b505050509050919050565b6000818152600260205260408120546001600160a01b0316806103b95760405162461bcd60e51b815260206004820152602960248201527f4552433732313a206f776e657220717565727920666f72206e6f6e657869737460448201526832b73a103a37b5b2b760b91b60648201526084016104c6565b60006001600160a01b038216610a5b5760405162461bcd60e51b815260206004820152602a60248201527f4552433732313a2062616c616e636520717565727920666f7220746865207a65604482015269726f206164647265737360b01b60648201526084016104c6565b506001600160a01b031660009081526003602052604090205490565b6006546001600160a01b03163314610aa15760405162461bcd60e51b81526004016104c690611d84565b610aab60006112e7565b565b6006546001600160a01b03163314610ad75760405162461bcd60e51b81526004016104c690611d84565b6001600160a01b0386166000908152600960205260408120805491610afb83611dcf565b9190505550610b18866008546001610b139190611de8565b611339565b60006040518060a001604052806008546001610b349190611de8565b8152602001336001600160a01b0316815260200187878080601f016020809104026020016040519081016040528093929190818152602001838380828437600092019190915250505090825250604080516020601f880181900481028201810190925286815291810191908790879081908401838280828437600092018290525093855250505060209091018490526008549192508291600a9190610bda906001611de8565b8152602080820192909252604090810160002083518155838301516001820180546001600160a01b0319166001600160a01b039092169190911790559083015180519192610c30926002850192909101906117d8565b5060608201518051610c4c9160038401916020909101906117d8565b50608091909101516004909101556001600160a01b0387166000908152600b60205260408120549003610cd957600754604051632f84317f60e01b81526001600160a01b03898116600483015290911690632f84317f90602401600060405180830381600087803b158015610cc057600080fd5b505af1158015610cd4573d6000803e3d6000fd5b505050505b6001600160a01b038781166000908152600b602090815260408083208054600180820183559185529383902086516005909502019384558583015190840180546001600160a01b03191691909516179093559183015180518493610d449260028501929101906117d8565b5060608201518051610d609160038401916020909101906117d8565b506080919091015160049091015560088054906000610d7e83611dcf565b9091555050600854604080519182526001600160a01b03891660208301527f55ba6067bcb99762442244385ec80878e3fc3eb52b0b8277a1aeb9248ba1c677910160405180910390a150505050505050565b6060600180546103ce90611cf9565b610dea338383611487565b5050565b610df83383611049565b610e145760405162461bcd60e51b81526004016104c690611d33565b610e2084848484611555565b50505050565b6000818152600260205260409020546060906001600160a01b0316610ea55760405162461bcd60e51b815260206004820152602f60248201527f4552433732314d657461646174613a2055524920717565727920666f72206e6f60448201526e3732bc34b9ba32b73a103a37b5b2b760891b60648201526084016104c6565b6000610ebc60408051602081019091526000815290565b90506000815111610edc5760405180602001604052806000815250610f07565b80610ee684611588565b604051602001610ef7929190611e00565b6040516020818303038152906040525b9392505050565b600a6020526000908152604090208054600182015460028301805492936001600160a01b039092169261069f90611cf9565b6006546001600160a01b03163314610f6a5760405162461bcd60e51b81526004016104c690611d84565b6001600160a01b038116610fcf5760405162461bcd60e51b815260206004820152602660248201527f4f776e61626c653a206e6577206f776e657220697320746865207a65726f206160448201526564647265737360d01b60648201526084016104c6565b610fd8816112e7565b50565b600081815260046020526040902080546001600160a01b0319166001600160a01b038416908117909155819061101082610979565b6001600160a01b03167f8c5be1e5ebec7d5bd14f71427d1e84f3dd0314c0f7b2291e5b200ac8c7c3b92560405160405180910390a45050565b6000818152600260205260408120546001600160a01b03166110c25760405162461bcd60e51b815260206004820152602c60248201527f4552433732313a206f70657261746f7220717565727920666f72206e6f6e657860448201526b34b9ba32b73a103a37b5b2b760a11b60648201526084016104c6565b60006110cd83610979565b9050806001600160a01b0316846001600160a01b0316148061111457506001600160a01b0380821660009081526005602090815260408083209388168352929052205460ff165b806111385750836001600160a01b031661112d84610451565b6001600160a01b0316145b949350505050565b826001600160a01b031661115382610979565b6001600160a01b0316146111b75760405162461bcd60e51b815260206004820152602560248201527f4552433732313a207472616e736665722066726f6d20696e636f72726563742060448201526437bbb732b960d91b60648201526084016104c6565b6001600160a01b0382166112195760405162461bcd60e51b8152602060048201526024808201527f4552433732313a207472616e7366657220746f20746865207a65726f206164646044820152637265737360e01b60648201526084016104c6565b611224838383611689565b61122f600082610fdb565b6001600160a01b0383166000908152600360205260408120805460019290611258908490611e2f565b90915550506001600160a01b0382166000908152600360205260408120805460019290611286908490611de8565b909155505060008181526002602052604080822080546001600160a01b0319166001600160a01b0386811691821790925591518493918716917fddf252ad1be2c89b69c2b068fc378daa952ba7f163c4a11628f55a4df523b3ef91a4505050565b600680546001600160a01b038381166001600160a01b0319831681179093556040519116919082907f8be0079c531659141344cd1fd0a4f28419497f9722a3daafe3b4186f6b6457e090600090a35050565b6001600160a01b03821661138f5760405162461bcd60e51b815260206004820181905260248201527f4552433732313a206d696e7420746f20746865207a65726f206164647265737360448201526064016104c6565b6000818152600260205260409020546001600160a01b0316156113f45760405162461bcd60e51b815260206004820152601c60248201527f4552433732313a20746f6b656e20616c7265616479206d696e7465640000000060448201526064016104c6565b61140060008383611689565b6001600160a01b0382166000908152600360205260408120805460019290611429908490611de8565b909155505060008181526002602052604080822080546001600160a01b0319166001600160a01b03861690811790915590518392907fddf252ad1be2c89b69c2b068fc378daa952ba7f163c4a11628f55a4df523b3ef908290a45050565b816001600160a01b0316836001600160a01b0316036114e85760405162461bcd60e51b815260206004820152601960248201527f4552433732313a20617070726f766520746f2063616c6c65720000000000000060448201526064016104c6565b6001600160a01b03838116600081815260056020908152604080832094871680845294825291829020805460ff191686151590811790915591519182527f17307eab39ab6107e8899845ad3d59bd9653f200f220920489ca2b5937696c31910160405180910390a3505050565b611560848484611140565b61156c848484846116d7565b610e205760405162461bcd60e51b81526004016104c690611e46565b6060816000036115af5750506040805180820190915260018152600360fc1b602082015290565b8160005b81156115d957806115c381611dcf565b91506115d29050600a83611eae565b91506115b3565b60008167ffffffffffffffff8111156115f4576115f4611bd4565b6040519080825280601f01601f19166020018201604052801561161e576020820181803683370190505b5090505b841561113857611633600183611e2f565b9150611640600a86611ec2565b61164b906030611de8565b60f81b81838151811061166057611660611ed6565b60200101906001600160f81b031916908160001a905350611682600a86611eae565b9450611622565b6001600160a01b038316156105fb5760405162461bcd60e51b815260206004820152601460248201527310d85b9b9bdd081d1c985b9cd9995c8818d95c9d60621b60448201526064016104c6565b60006001600160a01b0384163b156117cd57604051630a85bd0160e11b81526001600160a01b0385169063150b7a029061171b903390899088908890600401611eec565b6020604051808303816000875af1925050508015611756575060408051601f3d908101601f1916820190925261175391810190611f29565b60015b6117b3573d808015611784576040519150601f19603f3d011682016040523d82523d6000602084013e611789565b606091505b5080516000036117ab5760405162461bcd60e51b81526004016104c690611e46565b805181602001fd5b6001600160e01b031916630a85bd0160e11b149050611138565b506001949350505050565b8280546117e490611cf9565b90600052602060002090601f016020900481019282611806576000855561184c565b82601f1061181f57805160ff191683800117855561184c565b8280016001018555821561184c579182015b8281111561184c578251825591602001919060010190611831565b5061185892915061185c565b5090565b5b80821115611858576000815560010161185d565b6001600160e01b031981168114610fd857600080fd5b60006020828403121561189957600080fd5b8135610f0781611871565b60005b838110156118bf5781810151838201526020016118a7565b83811115610e205750506000910152565b600081518084526118e88160208601602086016118a4565b601f01601f19169290920160200192915050565b602081526000610f0760208301846118d0565b60006020828403121561192157600080fd5b5035919050565b80356001600160a01b038116811461193f57600080fd5b919050565b6000806040838503121561195757600080fd5b61196083611928565b946020939093013593505050565b60008060006060848603121561198357600080fd5b61198c84611928565b925061199a60208501611928565b9150604084013590509250925092565b6000602082840312156119bc57600080fd5b610f0782611928565b8581526001600160a01b038516602082015260a0604082018190526000906119ef908301866118d0565b8281036060840152611a0181866118d0565b9150508260808301529695505050505050565b60006020808301818452808551808352604092508286019150828160051b87010184880160005b83811015611ab857888303603f19018552815180518452878101516001600160a01b0316888501528681015160a088860181905290611a7c828701826118d0565b91505060608083015186830382880152611a9683826118d0565b6080948501519790940196909652505094870194925090860190600101611a3b565b509098975050505050505050565b60008083601f840112611ad857600080fd5b50813567ffffffffffffffff811115611af057600080fd5b602083019150836020828501011115611b0857600080fd5b9250929050565b60008060008060008060808789031215611b2857600080fd5b611b3187611928565b9550602087013567ffffffffffffffff80821115611b4e57600080fd5b611b5a8a838b01611ac6565b90975095506040890135915080821115611b7357600080fd5b50611b8089828a01611ac6565b979a9699509497949695606090950135949350505050565b60008060408385031215611bab57600080fd5b611bb483611928565b915060208301358015158114611bc957600080fd5b809150509250929050565b634e487b7160e01b600052604160045260246000fd5b60008060008060808587031215611c0057600080fd5b611c0985611928565b9350611c1760208601611928565b925060408501359150606085013567ffffffffffffffff80821115611c3b57600080fd5b818701915087601f830112611c4f57600080fd5b813581811115611c6157611c61611bd4565b604051601f8201601f19908116603f01168101908382118183101715611c8957611c89611bd4565b816040528281528a6020848701011115611ca257600080fd5b82602086016020830137600060208483010152809550505050505092959194509250565b60008060408385031215611cd957600080fd5b611ce283611928565b9150611cf060208401611928565b90509250929050565b600181811c90821680611d0d57607f821691505b602082108103611d2d57634e487b7160e01b600052602260045260246000fd5b50919050565b60208082526031908201527f4552433732313a207472616e736665722063616c6c6572206973206e6f74206f6040820152701ddb995c881b9bdc88185c1c1c9bdd9959607a1b606082015260800190565b6020808252818101527f4f776e61626c653a2063616c6c6572206973206e6f7420746865206f776e6572604082015260600190565b634e487b7160e01b600052601160045260246000fd5b600060018201611de157611de1611db9565b5060010190565b60008219821115611dfb57611dfb611db9565b500190565b60008351611e128184602088016118a4565b835190830190611e268183602088016118a4565b01949350505050565b600082821015611e4157611e41611db9565b500390565b60208082526032908201527f4552433732313a207472616e7366657220746f206e6f6e20455243373231526560408201527131b2b4bb32b91034b6b83632b6b2b73a32b960711b606082015260800190565b634e487b7160e01b600052601260045260246000fd5b600082611ebd57611ebd611e98565b500490565b600082611ed157611ed1611e98565b500690565b634e487b7160e01b600052603260045260246000fd5b6001600160a01b0385811682528416602082015260408101839052608060608201819052600090611f1f908301846118d0565b9695505050505050565b600060208284031215611f3b57600080fd5b8151610f078161187156fea2646970667358221220d9d8977344835cdf47d687fee98a06ab5cf72ef5f69eadd99c5cb0ae3c725a0764736f6c634300080e0033a264697066735822122040266deb9385cf82da51067c020a35d377b08c97db4aec63ea3b1da07d8cf8de64736f6c634300080e0033",
  "immutableReferences": {},
  "source": "// SPDX-License-Identifier: MIT\npragma solidity >=0.4.22 <0.9.0;\n\nimport {CredigibleCertificateCollection} from \"./CredigibleCertificate.sol\";\nimport \"@openzeppelin/contracts/access/Ownable.sol\";\n\ncontract CredigibleCertificateFactory is Ownable {\n    event Create(address);\n    event UserCollectionCallback(address index , address);\n\n    mapping(address => address[]) public userCollections;\n    mapping(address => bool) public collectionList;\n    constructor(){\n        _transferOwnership(msg.sender);\n    }\n\n    function create(\n        string calldata name,\n        string calldata symbol\n    ) external returns(address created) {\n        created = address(\n            new CredigibleCertificateCollection(\n                name,\n                symbol,\n                msg.sender,\n                address(this)\n            )\n        );\n        collectionList[created] = true;\n        emit Create(created);\n    }\n\n    function getUserCollection(address user) public view returns (address[] memory) {\n        return userCollections[user];\n    }\n\n    function userCollectionCallback(\n        address user\n    ) external {\n        require(collectionList[msg.sender], \"Not a collection!\");\n        userCollections[user].push(msg.sender);\n        emit UserCollectionCallback(user, msg.sender);\n    }\n}\n",
  "sourcePath": "/home/rishabh/backup/5thSemProj/server/nfts/contracts/CredigibleCertificateFactory.sol",
  "compiler": {
    "name": "solc",
    "version": "0.8.14+commit.80d49f37.Emscripten.clang"
  },
  "schemaVersion": "3.4.11",
  "updatedAt": "2023-01-15T16:35:24.947Z",
  "networkType": "ethereum",
  "devdoc": {
    "kind": "dev",
    "methods": {
      "owner()": {
        "details": "Returns the address of the current owner."
      },
      "renounceOwnership()": {
        "details": "Leaves the contract without owner. It will not be possible to call `onlyOwner` functions anymore. Can only be called by the current owner. NOTE: Renouncing ownership will leave the contract without an owner, thereby removing any functionality that is only available to the owner."
      },
      "transferOwnership(address)": {
        "details": "Transfers ownership of the contract to a new account (`newOwner`). Can only be called by the current owner."
      }
    },
    "version": 1
  },
  "userdoc": {
    "kind": "user",
    "methods": {},
    "version": 1
  }
}