{
  "contractName": "CredigibleCertificate",
  "abi": [
    {
      "inputs": [
        {
          "internalType": "string",
          "name": "name_",
          "type": "string"
        },
        {
          "internalType": "string",
          "name": "symbol_",
          "type": "string"
        }
      ],
      "stateMutability": "nonpayable",
      "type": "constructor"
    },
    {
      "anonymous": false,
      "inputs": [
        {
          "indexed": true,
          "internalType": "address",
          "name": "owner",
          "type": "address"
        },
        {
          "indexed": true,
          "internalType": "address",
          "name": "approved",
          "type": "address"
        },
        {
          "indexed": true,
          "internalType": "uint256",
          "name": "tokenId",
          "type": "uint256"
        }
      ],
      "name": "Approval",
      "type": "event"
    },
    {
      "anonymous": false,
      "inputs": [
        {
          "indexed": true,
          "internalType": "address",
          "name": "owner",
          "type": "address"
        },
        {
          "indexed": true,
          "internalType": "address",
          "name": "operator",
          "type": "address"
        },
        {
          "indexed": false,
          "internalType": "bool",
          "name": "approved",
          "type": "bool"
        }
      ],
      "name": "ApprovalForAll",
      "type": "event"
    },
    {
      "anonymous": false,
      "inputs": [
        {
          "indexed": true,
          "internalType": "address",
          "name": "previousOwner",
          "type": "address"
        },
        {
          "indexed": true,
          "internalType": "address",
          "name": "newOwner",
          "type": "address"
        }
      ],
      "name": "OwnershipTransferred",
      "type": "event"
    },
    {
      "anonymous": false,
      "inputs": [
        {
          "indexed": true,
          "internalType": "address",
          "name": "from",
          "type": "address"
        },
        {
          "indexed": true,
          "internalType": "address",
          "name": "to",
          "type": "address"
        },
        {
          "indexed": true,
          "internalType": "uint256",
          "name": "tokenId",
          "type": "uint256"
        }
      ],
      "name": "Transfer",
      "type": "event"
    },
    {
      "inputs": [
        {
          "internalType": "address",
          "name": "to",
          "type": "address"
        },
        {
          "internalType": "uint256",
          "name": "tokenId",
          "type": "uint256"
        }
      ],
      "name": "approve",
      "outputs": [],
      "stateMutability": "nonpayable",
      "type": "function"
    },
    {
      "inputs": [
        {
          "internalType": "address",
          "name": "owner",
          "type": "address"
        }
      ],
      "name": "balanceOf",
      "outputs": [
        {
          "internalType": "uint256",
          "name": "",
          "type": "uint256"
        }
      ],
      "stateMutability": "view",
      "type": "function",
      "constant": true
    },
    {
      "inputs": [
        {
          "internalType": "address",
          "name": "",
          "type": "address"
        },
        {
          "internalType": "uint256",
          "name": "",
          "type": "uint256"
        }
      ],
      "name": "certificates",
      "outputs": [
        {
          "internalType": "uint256",
          "name": "id",
          "type": "uint256"
        },
        {
          "internalType": "string",
          "name": "IPFS_hash",
          "type": "string"
        },
        {
          "internalType": "address",
          "name": "publisher",
          "type": "address"
        },
        {
          "internalType": "string",
          "name": "encrypted_IPFS_hash",
          "type": "string"
        }
      ],
      "stateMutability": "view",
      "type": "function",
      "constant": true
    },
    {
      "inputs": [
        {
          "internalType": "uint256",
          "name": "tokenId",
          "type": "uint256"
        }
      ],
      "name": "getApproved",
      "outputs": [
        {
          "internalType": "address",
          "name": "",
          "type": "address"
        }
      ],
      "stateMutability": "view",
      "type": "function",
      "constant": true
    },
    {
      "inputs": [
        {
          "internalType": "address",
          "name": "owner",
          "type": "address"
        },
        {
          "internalType": "address",
          "name": "operator",
          "type": "address"
        }
      ],
      "name": "isApprovedForAll",
      "outputs": [
        {
          "internalType": "bool",
          "name": "",
          "type": "bool"
        }
      ],
      "stateMutability": "view",
      "type": "function",
      "constant": true
    },
    {
      "inputs": [
        {
          "internalType": "uint256",
          "name": "",
          "type": "uint256"
        }
      ],
      "name": "metadata",
      "outputs": [
        {
          "internalType": "uint256",
          "name": "id",
          "type": "uint256"
        },
        {
          "internalType": "string",
          "name": "IPFS_hash",
          "type": "string"
        },
        {
          "internalType": "address",
          "name": "publisher",
          "type": "address"
        },
        {
          "internalType": "string",
          "name": "encrypted_IPFS_hash",
          "type": "string"
        }
      ],
      "stateMutability": "view",
      "type": "function",
      "constant": true
    },
    {
      "inputs": [],
      "name": "name",
      "outputs": [
        {
          "internalType": "string",
          "name": "",
          "type": "string"
        }
      ],
      "stateMutability": "view",
      "type": "function",
      "constant": true
    },
    {
      "inputs": [],
      "name": "owner",
      "outputs": [
        {
          "internalType": "address",
          "name": "",
          "type": "address"
        }
      ],
      "stateMutability": "view",
      "type": "function",
      "constant": true
    },
    {
      "inputs": [
        {
          "internalType": "uint256",
          "name": "tokenId",
          "type": "uint256"
        }
      ],
      "name": "ownerOf",
      "outputs": [
        {
          "internalType": "address",
          "name": "",
          "type": "address"
        }
      ],
      "stateMutability": "view",
      "type": "function",
      "constant": true
    },
    {
      "inputs": [],
      "name": "renounceOwnership",
      "outputs": [],
      "stateMutability": "nonpayable",
      "type": "function"
    },
    {
      "inputs": [
        {
          "internalType": "address",
          "name": "from",
          "type": "address"
        },
        {
          "internalType": "address",
          "name": "to",
          "type": "address"
        },
        {
          "internalType": "uint256",
          "name": "tokenId",
          "type": "uint256"
        }
      ],
      "name": "safeTransferFrom",
      "outputs": [],
      "stateMutability": "nonpayable",
      "type": "function"
    },
    {
      "inputs": [
        {
          "internalType": "address",
          "name": "from",
          "type": "address"
        },
        {
          "internalType": "address",
          "name": "to",
          "type": "address"
        },
        {
          "internalType": "uint256",
          "name": "tokenId",
          "type": "uint256"
        },
        {
          "internalType": "bytes",
          "name": "_data",
          "type": "bytes"
        }
      ],
      "name": "safeTransferFrom",
      "outputs": [],
      "stateMutability": "nonpayable",
      "type": "function"
    },
    {
      "inputs": [
        {
          "internalType": "address",
          "name": "operator",
          "type": "address"
        },
        {
          "internalType": "bool",
          "name": "approved",
          "type": "bool"
        }
      ],
      "name": "setApprovalForAll",
      "outputs": [],
      "stateMutability": "nonpayable",
      "type": "function"
    },
    {
      "inputs": [
        {
          "internalType": "bytes4",
          "name": "interfaceId",
          "type": "bytes4"
        }
      ],
      "name": "supportsInterface",
      "outputs": [
        {
          "internalType": "bool",
          "name": "",
          "type": "bool"
        }
      ],
      "stateMutability": "view",
      "type": "function",
      "constant": true
    },
    {
      "inputs": [],
      "name": "symbol",
      "outputs": [
        {
          "internalType": "string",
          "name": "",
          "type": "string"
        }
      ],
      "stateMutability": "view",
      "type": "function",
      "constant": true
    },
    {
      "inputs": [
        {
          "internalType": "uint256",
          "name": "tokenId",
          "type": "uint256"
        }
      ],
      "name": "tokenURI",
      "outputs": [
        {
          "internalType": "string",
          "name": "",
          "type": "string"
        }
      ],
      "stateMutability": "view",
      "type": "function",
      "constant": true
    },
    {
      "inputs": [
        {
          "internalType": "address",
          "name": "from",
          "type": "address"
        },
        {
          "internalType": "address",
          "name": "to",
          "type": "address"
        },
        {
          "internalType": "uint256",
          "name": "tokenId",
          "type": "uint256"
        }
      ],
      "name": "transferFrom",
      "outputs": [],
      "stateMutability": "nonpayable",
      "type": "function"
    },
    {
      "inputs": [
        {
          "internalType": "address",
          "name": "newOwner",
          "type": "address"
        }
      ],
      "name": "transferOwnership",
      "outputs": [],
      "stateMutability": "nonpayable",
      "type": "function"
    },
    {
      "inputs": [
        {
          "internalType": "address",
          "name": "targetAddress",
          "type": "address"
        },
        {
          "internalType": "string",
          "name": "_IPFS_hash",
          "type": "string"
        },
        {
          "internalType": "string",
          "name": "_encrypted_IPFS_hash",
          "type": "string"
        }
      ],
      "name": "mint",
      "outputs": [],
      "stateMutability": "nonpayable",
      "type": "function"
    },
    {
      "inputs": [
        {
          "internalType": "address",
          "name": "targetAddress",
          "type": "address"
        }
      ],
      "name": "getAmountOfCertificate",
      "outputs": [
        {
          "internalType": "uint256",
          "name": "",
          "type": "uint256"
        }
      ],
      "stateMutability": "view",
      "type": "function",
      "constant": true
    }
  ],
  "bytecode": "0x608060405260006007553480156200001657600080fd5b5060405162001ecf38038062001ecf833981016040819052620000399162000261565b81518290829062000052906000906020850190620000ee565b50805162000068906001906020840190620000ee565b505050620000856200007f6200009860201b60201c565b6200009c565b62000090336200009c565b505062000307565b3390565b600680546001600160a01b038381166001600160a01b0319831681179093556040519116919082907f8be0079c531659141344cd1fd0a4f28419497f9722a3daafe3b4186f6b6457e090600090a35050565b828054620000fc90620002cb565b90600052602060002090601f0160209004810192826200012057600085556200016b565b82601f106200013b57805160ff19168380011785556200016b565b828001600101855582156200016b579182015b828111156200016b5782518255916020019190600101906200014e565b50620001799291506200017d565b5090565b5b808211156200017957600081556001016200017e565b634e487b7160e01b600052604160045260246000fd5b600082601f830112620001bc57600080fd5b81516001600160401b0380821115620001d957620001d962000194565b604051601f8301601f19908116603f0116810190828211818310171562000204576200020462000194565b816040528381526020925086838588010111156200022157600080fd5b600091505b8382101562000245578582018301518183018401529082019062000226565b83821115620002575760008385830101525b9695505050505050565b600080604083850312156200027557600080fd5b82516001600160401b03808211156200028d57600080fd5b6200029b86838701620001aa565b93506020850151915080821115620002b257600080fd5b50620002c185828601620001aa565b9150509250929050565b600181811c90821680620002e057607f821691505b6020821081036200030157634e487b7160e01b600052602260045260246000fd5b50919050565b611bb880620003176000396000f3fe608060405234801561001057600080fd5b506004361061012c5760003560e01c8063715018a6116100ad578063b88d4fde11610071578063b88d4fde1461029b578063c87b56dd146102ae578063e3684e39146102c1578063e985e9c5146102d4578063f2fde38b1461031057600080fd5b8063715018a6146102545780638da5cb5b1461025c57806395d89b411461026d5780639907119014610275578063a22cb4651461028857600080fd5b80633d661453116100f45780633d661453146101c157806342842e0e146101f857806346f3141c1461020b5780636352211e1461022e57806370a082311461024157600080fd5b806301ffc9a71461013157806306fdde0314610159578063081812fc1461016e578063095ea7b31461019957806323b872dd146101ae575b600080fd5b61014461013f366004611587565b610323565b60405190151581526020015b60405180910390f35b610161610375565b60405161015091906115fc565b61018161017c36600461160f565b610407565b6040516001600160a01b039091168152602001610150565b6101ac6101a7366004611644565b6104a1565b005b6101ac6101bc36600461166e565b6105b6565b6101ea6101cf3660046116aa565b6001600160a01b031660009081526008602052604090205490565b604051908152602001610150565b6101ac61020636600461166e565b6105e7565b61021e610219366004611644565b610602565b60405161015094939291906116c5565b61018161023c36600461160f565b61076e565b6101ea61024f3660046116aa565b6107e5565b6101ac61086c565b6006546001600160a01b0316610181565b6101616108a2565b6101ac610283366004611753565b6108b1565b6101ac6102963660046117d4565b610aef565b6101ac6102a9366004611826565b610afe565b6101616102bc36600461160f565b610b36565b61021e6102cf36600461160f565b610c1e565b6101446102e2366004611902565b6001600160a01b03918216600090815260056020908152604080832093909416825291909152205460ff1690565b6101ac61031e3660046116aa565b610c40565b60006001600160e01b031982166380ac58cd60e01b148061035457506001600160e01b03198216635b5e139f60e01b145b8061036f57506301ffc9a760e01b6001600160e01b03198316145b92915050565b60606000805461038490611935565b80601f01602080910402602001604051908101604052809291908181526020018280546103b090611935565b80156103fd5780601f106103d2576101008083540402835291602001916103fd565b820191906000526020600020905b8154815290600101906020018083116103e057829003601f168201915b5050505050905090565b6000818152600260205260408120546001600160a01b03166104855760405162461bcd60e51b815260206004820152602c60248201527f4552433732313a20617070726f76656420717565727920666f72206e6f6e657860448201526b34b9ba32b73a103a37b5b2b760a11b60648201526084015b60405180910390fd5b506000908152600460205260409020546001600160a01b031690565b60006104ac8261076e565b9050806001600160a01b0316836001600160a01b0316036105195760405162461bcd60e51b815260206004820152602160248201527f4552433732313a20617070726f76616c20746f2063757272656e74206f776e656044820152603960f91b606482015260840161047c565b336001600160a01b0382161480610535575061053581336102e2565b6105a75760405162461bcd60e51b815260206004820152603860248201527f4552433732313a20617070726f76652063616c6c6572206973206e6f74206f7760448201527f6e6572206e6f7220617070726f76656420666f7220616c6c0000000000000000606482015260840161047c565b6105b18383610cdb565b505050565b6105c03382610d49565b6105dc5760405162461bcd60e51b815260040161047c9061196f565b6105b1838383610e40565b6105b183838360405180602001604052806000815250610afe565b600a602052816000526040600020818154811061061e57600080fd5b90600052602060002090600402016000915091505080600001549080600101805461064890611935565b80601f016020809104026020016040519081016040528092919081815260200182805461067490611935565b80156106c15780601f10610696576101008083540402835291602001916106c1565b820191906000526020600020905b8154815290600101906020018083116106a457829003601f168201915b505050600284015460038501805494956001600160a01b039092169491935091506106eb90611935565b80601f016020809104026020016040519081016040528092919081815260200182805461071790611935565b80156107645780601f1061073957610100808354040283529160200191610764565b820191906000526020600020905b81548152906001019060200180831161074757829003601f168201915b5050505050905084565b6000818152600260205260408120546001600160a01b03168061036f5760405162461bcd60e51b815260206004820152602960248201527f4552433732313a206f776e657220717565727920666f72206e6f6e657869737460448201526832b73a103a37b5b2b760b91b606482015260840161047c565b60006001600160a01b0382166108505760405162461bcd60e51b815260206004820152602a60248201527f4552433732313a2062616c616e636520717565727920666f7220746865207a65604482015269726f206164647265737360b01b606482015260840161047c565b506001600160a01b031660009081526003602052604090205490565b6006546001600160a01b031633146108965760405162461bcd60e51b815260040161047c906119c0565b6108a06000610fe7565b565b60606001805461038490611935565b6006546001600160a01b031633146108db5760405162461bcd60e51b815260040161047c906119c0565b6001600160a01b03851660009081526008602052604081208054916108ff83611a0b565b919050555061091c8560075460016109179190611a24565b611039565b6000604051806080016040528060075460016109389190611a24565b815260200186868080601f0160208091040260200160405190810160405280939291908181526020018383808284376000920191909152505050908252503360208083019190915260408051601f8701839004830281018301825286815292019190869086908190840183828082843760009201829052509390945250506007549293508392600992506109cd906001611a24565b81526020808201929092526040016000208251815582820151805191926109fc926001850192909101906114d8565b5060408201516002820180546001600160a01b0319166001600160a01b0390921691909117905560608201518051610a3e9160038401916020909101906114d8565b5050506001600160a01b0386166000908152600a602090815260408220805460018181018355918452928290208451600490940201928355838201518051859493610a8d9385019201906114d8565b5060408201516002820180546001600160a01b0319166001600160a01b0390921691909117905560608201518051610acf9160038401916020909101906114d8565b50506007805491506000610ae283611a0b565b9190505550505050505050565b610afa338383611187565b5050565b610b083383610d49565b610b245760405162461bcd60e51b815260040161047c9061196f565b610b3084848484611255565b50505050565b6000818152600260205260409020546060906001600160a01b0316610bb55760405162461bcd60e51b815260206004820152602f60248201527f4552433732314d657461646174613a2055524920717565727920666f72206e6f60448201526e3732bc34b9ba32b73a103a37b5b2b760891b606482015260840161047c565b6000610bcc60408051602081019091526000815290565b90506000815111610bec5760405180602001604052806000815250610c17565b80610bf684611288565b604051602001610c07929190611a3c565b6040516020818303038152906040525b9392505050565b6009602052600090815260409020805460018201805491929161064890611935565b6006546001600160a01b03163314610c6a5760405162461bcd60e51b815260040161047c906119c0565b6001600160a01b038116610ccf5760405162461bcd60e51b815260206004820152602660248201527f4f776e61626c653a206e6577206f776e657220697320746865207a65726f206160448201526564647265737360d01b606482015260840161047c565b610cd881610fe7565b50565b600081815260046020526040902080546001600160a01b0319166001600160a01b0384169081179091558190610d108261076e565b6001600160a01b03167f8c5be1e5ebec7d5bd14f71427d1e84f3dd0314c0f7b2291e5b200ac8c7c3b92560405160405180910390a45050565b6000818152600260205260408120546001600160a01b0316610dc25760405162461bcd60e51b815260206004820152602c60248201527f4552433732313a206f70657261746f7220717565727920666f72206e6f6e657860448201526b34b9ba32b73a103a37b5b2b760a11b606482015260840161047c565b6000610dcd8361076e565b9050806001600160a01b0316846001600160a01b03161480610e1457506001600160a01b0380821660009081526005602090815260408083209388168352929052205460ff165b80610e385750836001600160a01b0316610e2d84610407565b6001600160a01b0316145b949350505050565b826001600160a01b0316610e538261076e565b6001600160a01b031614610eb75760405162461bcd60e51b815260206004820152602560248201527f4552433732313a207472616e736665722066726f6d20696e636f72726563742060448201526437bbb732b960d91b606482015260840161047c565b6001600160a01b038216610f195760405162461bcd60e51b8152602060048201526024808201527f4552433732313a207472616e7366657220746f20746865207a65726f206164646044820152637265737360e01b606482015260840161047c565b610f24838383611389565b610f2f600082610cdb565b6001600160a01b0383166000908152600360205260408120805460019290610f58908490611a6b565b90915550506001600160a01b0382166000908152600360205260408120805460019290610f86908490611a24565b909155505060008181526002602052604080822080546001600160a01b0319166001600160a01b0386811691821790925591518493918716917fddf252ad1be2c89b69c2b068fc378daa952ba7f163c4a11628f55a4df523b3ef91a4505050565b600680546001600160a01b038381166001600160a01b0319831681179093556040519116919082907f8be0079c531659141344cd1fd0a4f28419497f9722a3daafe3b4186f6b6457e090600090a35050565b6001600160a01b03821661108f5760405162461bcd60e51b815260206004820181905260248201527f4552433732313a206d696e7420746f20746865207a65726f2061646472657373604482015260640161047c565b6000818152600260205260409020546001600160a01b0316156110f45760405162461bcd60e51b815260206004820152601c60248201527f4552433732313a20746f6b656e20616c7265616479206d696e74656400000000604482015260640161047c565b61110060008383611389565b6001600160a01b0382166000908152600360205260408120805460019290611129908490611a24565b909155505060008181526002602052604080822080546001600160a01b0319166001600160a01b03861690811790915590518392907fddf252ad1be2c89b69c2b068fc378daa952ba7f163c4a11628f55a4df523b3ef908290a45050565b816001600160a01b0316836001600160a01b0316036111e85760405162461bcd60e51b815260206004820152601960248201527f4552433732313a20617070726f766520746f2063616c6c657200000000000000604482015260640161047c565b6001600160a01b03838116600081815260056020908152604080832094871680845294825291829020805460ff191686151590811790915591519182527f17307eab39ab6107e8899845ad3d59bd9653f200f220920489ca2b5937696c31910160405180910390a3505050565b611260848484610e40565b61126c848484846113d7565b610b305760405162461bcd60e51b815260040161047c90611a82565b6060816000036112af5750506040805180820190915260018152600360fc1b602082015290565b8160005b81156112d957806112c381611a0b565b91506112d29050600a83611aea565b91506112b3565b60008167ffffffffffffffff8111156112f4576112f4611810565b6040519080825280601f01601f19166020018201604052801561131e576020820181803683370190505b5090505b8415610e3857611333600183611a6b565b9150611340600a86611afe565b61134b906030611a24565b60f81b81838151811061136057611360611b12565b60200101906001600160f81b031916908160001a905350611382600a86611aea565b9450611322565b6001600160a01b038316156105b15760405162461bcd60e51b815260206004820152601460248201527310d85b9b9bdd081d1c985b9cd9995c8818d95c9d60621b604482015260640161047c565b60006001600160a01b0384163b156114cd57604051630a85bd0160e11b81526001600160a01b0385169063150b7a029061141b903390899088908890600401611b28565b6020604051808303816000875af1925050508015611456575060408051601f3d908101601f1916820190925261145391810190611b65565b60015b6114b3573d808015611484576040519150601f19603f3d011682016040523d82523d6000602084013e611489565b606091505b5080516000036114ab5760405162461bcd60e51b815260040161047c90611a82565b805181602001fd5b6001600160e01b031916630a85bd0160e11b149050610e38565b506001949350505050565b8280546114e490611935565b90600052602060002090601f016020900481019282611506576000855561154c565b82601f1061151f57805160ff191683800117855561154c565b8280016001018555821561154c579182015b8281111561154c578251825591602001919060010190611531565b5061155892915061155c565b5090565b5b80821115611558576000815560010161155d565b6001600160e01b031981168114610cd857600080fd5b60006020828403121561159957600080fd5b8135610c1781611571565b60005b838110156115bf5781810151838201526020016115a7565b83811115610b305750506000910152565b600081518084526115e88160208601602086016115a4565b601f01601f19169290920160200192915050565b602081526000610c1760208301846115d0565b60006020828403121561162157600080fd5b5035919050565b80356001600160a01b038116811461163f57600080fd5b919050565b6000806040838503121561165757600080fd5b61166083611628565b946020939093013593505050565b60008060006060848603121561168357600080fd5b61168c84611628565b925061169a60208501611628565b9150604084013590509250925092565b6000602082840312156116bc57600080fd5b610c1782611628565b8481526080602082015260006116de60808301866115d0565b6001600160a01b038516604084015282810360608401526116ff81856115d0565b979650505050505050565b60008083601f84011261171c57600080fd5b50813567ffffffffffffffff81111561173457600080fd5b60208301915083602082850101111561174c57600080fd5b9250929050565b60008060008060006060868803121561176b57600080fd5b61177486611628565b9450602086013567ffffffffffffffff8082111561179157600080fd5b61179d89838a0161170a565b909650945060408801359150808211156117b657600080fd5b506117c38882890161170a565b969995985093965092949392505050565b600080604083850312156117e757600080fd5b6117f083611628565b91506020830135801515811461180557600080fd5b809150509250929050565b634e487b7160e01b600052604160045260246000fd5b6000806000806080858703121561183c57600080fd5b61184585611628565b935061185360208601611628565b925060408501359150606085013567ffffffffffffffff8082111561187757600080fd5b818701915087601f83011261188b57600080fd5b81358181111561189d5761189d611810565b604051601f8201601f19908116603f011681019083821181831017156118c5576118c5611810565b816040528281528a60208487010111156118de57600080fd5b82602086016020830137600060208483010152809550505050505092959194509250565b6000806040838503121561191557600080fd5b61191e83611628565b915061192c60208401611628565b90509250929050565b600181811c9082168061194957607f821691505b60208210810361196957634e487b7160e01b600052602260045260246000fd5b50919050565b60208082526031908201527f4552433732313a207472616e736665722063616c6c6572206973206e6f74206f6040820152701ddb995c881b9bdc88185c1c1c9bdd9959607a1b606082015260800190565b6020808252818101527f4f776e61626c653a2063616c6c6572206973206e6f7420746865206f776e6572604082015260600190565b634e487b7160e01b600052601160045260246000fd5b600060018201611a1d57611a1d6119f5565b5060010190565b60008219821115611a3757611a376119f5565b500190565b60008351611a4e8184602088016115a4565b835190830190611a628183602088016115a4565b01949350505050565b600082821015611a7d57611a7d6119f5565b500390565b60208082526032908201527f4552433732313a207472616e7366657220746f206e6f6e20455243373231526560408201527131b2b4bb32b91034b6b83632b6b2b73a32b960711b606082015260800190565b634e487b7160e01b600052601260045260246000fd5b600082611af957611af9611ad4565b500490565b600082611b0d57611b0d611ad4565b500690565b634e487b7160e01b600052603260045260246000fd5b6001600160a01b0385811682528416602082015260408101839052608060608201819052600090611b5b908301846115d0565b9695505050505050565b600060208284031215611b7757600080fd5b8151610c178161157156fea2646970667358221220fa7f2e2174b7edf4e247043d8a04ff9641e4da2268c9ed7efbf09767d77c12c964736f6c634300080e0033",
  "immutableReferences": {},
  "source": "// SPDX-License-Identifier: MIT\npragma solidity >=0.4.22 <0.9.0;\n\nimport \"@openzeppelin/contracts/token/ERC721/ERC721.sol\";\nimport \"@openzeppelin/contracts/access/Ownable.sol\";\n\ncontract CredigibleCertificate is ERC721, Ownable {\n    \n    constructor(string memory name_, string memory symbol_) ERC721(name_, symbol_) {\n        //_owner = msg.sender;\n        //Ownable();\n        //ERC721(\"PU CERTS\", \"PUC\");\n        _transferOwnership(msg.sender);\n    }\n\n    uint256 private supply = 0;\n\n    struct CredigibleMetadata{\n        uint256 id;\n        string IPFS_hash;\n        address publisher;\n        string encrypted_IPFS_hash;\n    }\n\n    mapping(address => uint256) private balances;\n    mapping(uint256 => CredigibleMetadata) public metadata;\n    mapping(address => CredigibleMetadata[]) public certificates;\n\n\n\n    function mint(address targetAddress, string calldata _IPFS_hash, string calldata _encrypted_IPFS_hash) onlyOwner public {\n        balances[targetAddress]++;\n        _mint(targetAddress, supply+1);\n        CredigibleMetadata memory current = CredigibleMetadata({\n            id: supply+1,\n            IPFS_hash: _IPFS_hash,\n            publisher: msg.sender,\n            encrypted_IPFS_hash: _encrypted_IPFS_hash\n        });\n\n        metadata[supply+1] = current;\n        certificates[targetAddress].push(current);\n        supply++;\n\n\n    }\n\n    function _beforeTokenTransfer(address from, address to, uint256 tokenID) internal virtual override(ERC721) {\n        require(from == 0x0000000000000000000000000000000000000000, \"Cannot transfer cert\");\n        super._beforeTokenTransfer(from, to, tokenID);\n    }\n\n\n    function getAmountOfCertificate(address targetAddress) public view returns (uint256) {\n        return balances[targetAddress];\n    }\n}\n",
  "sourcePath": "/home/rishabh/Blockchain/5thSemProj/server/nfts/contracts/CredigibleCertificate.sol",
  "compiler": {
    "name": "solc",
    "version": "0.8.14+commit.80d49f37.Emscripten.clang"
  },
  "schemaVersion": "3.4.11",
  "updatedAt": "2022-12-09T09:45:38.135Z",
  "networkType": "ethereum",
  "devdoc": {
    "kind": "dev",
    "methods": {
      "approve(address,uint256)": {
        "details": "See {IERC721-approve}."
      },
      "balanceOf(address)": {
        "details": "See {IERC721-balanceOf}."
      },
      "getApproved(uint256)": {
        "details": "See {IERC721-getApproved}."
      },
      "isApprovedForAll(address,address)": {
        "details": "See {IERC721-isApprovedForAll}."
      },
      "name()": {
        "details": "See {IERC721Metadata-name}."
      },
      "owner()": {
        "details": "Returns the address of the current owner."
      },
      "ownerOf(uint256)": {
        "details": "See {IERC721-ownerOf}."
      },
      "renounceOwnership()": {
        "details": "Leaves the contract without owner. It will not be possible to call `onlyOwner` functions anymore. Can only be called by the current owner. NOTE: Renouncing ownership will leave the contract without an owner, thereby removing any functionality that is only available to the owner."
      },
      "safeTransferFrom(address,address,uint256)": {
        "details": "See {IERC721-safeTransferFrom}."
      },
      "safeTransferFrom(address,address,uint256,bytes)": {
        "details": "See {IERC721-safeTransferFrom}."
      },
      "setApprovalForAll(address,bool)": {
        "details": "See {IERC721-setApprovalForAll}."
      },
      "supportsInterface(bytes4)": {
        "details": "See {IERC165-supportsInterface}."
      },
      "symbol()": {
        "details": "See {IERC721Metadata-symbol}."
      },
      "tokenURI(uint256)": {
        "details": "See {IERC721Metadata-tokenURI}."
      },
      "transferFrom(address,address,uint256)": {
        "details": "See {IERC721-transferFrom}."
      },
      "transferOwnership(address)": {
        "details": "Transfers ownership of the contract to a new account (`newOwner`). Can only be called by the current owner."
      }
    },
    "version": 1
  },
  "userdoc": {
    "kind": "user",
    "methods": {},
    "version": 1
  }
}