{
  "contractName": "AfterworkByLaCity240622",
  "abi": [
    {
      "inputs": [],
      "stateMutability": "nonpayable",
      "type": "constructor"
    },
    {
      "anonymous": false,
      "inputs": [
        {
          "indexed": true,
          "internalType": "address",
          "name": "owner",
          "type": "address"
        },
        {
          "indexed": true,
          "internalType": "address",
          "name": "approved",
          "type": "address"
        },
        {
          "indexed": true,
          "internalType": "uint256",
          "name": "tokenId",
          "type": "uint256"
        }
      ],
      "name": "Approval",
      "type": "event"
    },
    {
      "anonymous": false,
      "inputs": [
        {
          "indexed": true,
          "internalType": "address",
          "name": "owner",
          "type": "address"
        },
        {
          "indexed": true,
          "internalType": "address",
          "name": "operator",
          "type": "address"
        },
        {
          "indexed": false,
          "internalType": "bool",
          "name": "approved",
          "type": "bool"
        }
      ],
      "name": "ApprovalForAll",
      "type": "event"
    },
    {
      "anonymous": false,
      "inputs": [
        {
          "indexed": true,
          "internalType": "address",
          "name": "previousOwner",
          "type": "address"
        },
        {
          "indexed": true,
          "internalType": "address",
          "name": "newOwner",
          "type": "address"
        }
      ],
      "name": "OwnershipTransferred",
      "type": "event"
    },
    {
      "anonymous": false,
      "inputs": [
        {
          "indexed": true,
          "internalType": "address",
          "name": "from",
          "type": "address"
        },
        {
          "indexed": true,
          "internalType": "address",
          "name": "to",
          "type": "address"
        },
        {
          "indexed": true,
          "internalType": "uint256",
          "name": "tokenId",
          "type": "uint256"
        }
      ],
      "name": "Transfer",
      "type": "event"
    },
    {
      "inputs": [
        {
          "internalType": "address",
          "name": "to",
          "type": "address"
        },
        {
          "internalType": "uint256",
          "name": "tokenId",
          "type": "uint256"
        }
      ],
      "name": "approve",
      "outputs": [],
      "stateMutability": "nonpayable",
      "type": "function"
    },
    {
      "inputs": [
        {
          "internalType": "address",
          "name": "owner",
          "type": "address"
        }
      ],
      "name": "balanceOf",
      "outputs": [
        {
          "internalType": "uint256",
          "name": "",
          "type": "uint256"
        }
      ],
      "stateMutability": "view",
      "type": "function",
      "constant": true
    },
    {
      "inputs": [],
      "name": "baseURI",
      "outputs": [
        {
          "internalType": "string",
          "name": "",
          "type": "string"
        }
      ],
      "stateMutability": "view",
      "type": "function",
      "constant": true
    },
    {
      "inputs": [
        {
          "internalType": "uint256",
          "name": "tokenId",
          "type": "uint256"
        }
      ],
      "name": "getApproved",
      "outputs": [
        {
          "internalType": "address",
          "name": "",
          "type": "address"
        }
      ],
      "stateMutability": "view",
      "type": "function",
      "constant": true
    },
    {
      "inputs": [
        {
          "internalType": "address",
          "name": "owner",
          "type": "address"
        },
        {
          "internalType": "address",
          "name": "operator",
          "type": "address"
        }
      ],
      "name": "isApprovedForAll",
      "outputs": [
        {
          "internalType": "bool",
          "name": "",
          "type": "bool"
        }
      ],
      "stateMutability": "view",
      "type": "function",
      "constant": true
    },
    {
      "inputs": [],
      "name": "name",
      "outputs": [
        {
          "internalType": "string",
          "name": "",
          "type": "string"
        }
      ],
      "stateMutability": "view",
      "type": "function",
      "constant": true
    },
    {
      "inputs": [],
      "name": "owner",
      "outputs": [
        {
          "internalType": "address",
          "name": "",
          "type": "address"
        }
      ],
      "stateMutability": "view",
      "type": "function",
      "constant": true
    },
    {
      "inputs": [
        {
          "internalType": "uint256",
          "name": "tokenId",
          "type": "uint256"
        }
      ],
      "name": "ownerOf",
      "outputs": [
        {
          "internalType": "address",
          "name": "",
          "type": "address"
        }
      ],
      "stateMutability": "view",
      "type": "function",
      "constant": true
    },
    {
      "inputs": [],
      "name": "renounceOwnership",
      "outputs": [],
      "stateMutability": "nonpayable",
      "type": "function"
    },
    {
      "inputs": [
        {
          "internalType": "address",
          "name": "from",
          "type": "address"
        },
        {
          "internalType": "address",
          "name": "to",
          "type": "address"
        },
        {
          "internalType": "uint256",
          "name": "tokenId",
          "type": "uint256"
        }
      ],
      "name": "safeTransferFrom",
      "outputs": [],
      "stateMutability": "nonpayable",
      "type": "function"
    },
    {
      "inputs": [
        {
          "internalType": "address",
          "name": "from",
          "type": "address"
        },
        {
          "internalType": "address",
          "name": "to",
          "type": "address"
        },
        {
          "internalType": "uint256",
          "name": "tokenId",
          "type": "uint256"
        },
        {
          "internalType": "bytes",
          "name": "_data",
          "type": "bytes"
        }
      ],
      "name": "safeTransferFrom",
      "outputs": [],
      "stateMutability": "nonpayable",
      "type": "function"
    },
    {
      "inputs": [
        {
          "internalType": "address",
          "name": "operator",
          "type": "address"
        },
        {
          "internalType": "bool",
          "name": "approved",
          "type": "bool"
        }
      ],
      "name": "setApprovalForAll",
      "outputs": [],
      "stateMutability": "nonpayable",
      "type": "function"
    },
    {
      "inputs": [
        {
          "internalType": "bytes4",
          "name": "interfaceId",
          "type": "bytes4"
        }
      ],
      "name": "supportsInterface",
      "outputs": [
        {
          "internalType": "bool",
          "name": "",
          "type": "bool"
        }
      ],
      "stateMutability": "view",
      "type": "function",
      "constant": true
    },
    {
      "inputs": [],
      "name": "symbol",
      "outputs": [
        {
          "internalType": "string",
          "name": "",
          "type": "string"
        }
      ],
      "stateMutability": "view",
      "type": "function",
      "constant": true
    },
    {
      "inputs": [
        {
          "internalType": "address",
          "name": "from",
          "type": "address"
        },
        {
          "internalType": "address",
          "name": "to",
          "type": "address"
        },
        {
          "internalType": "uint256",
          "name": "tokenId",
          "type": "uint256"
        }
      ],
      "name": "transferFrom",
      "outputs": [],
      "stateMutability": "nonpayable",
      "type": "function"
    },
    {
      "inputs": [
        {
          "internalType": "address",
          "name": "newOwner",
          "type": "address"
        }
      ],
      "name": "transferOwnership",
      "outputs": [],
      "stateMutability": "nonpayable",
      "type": "function"
    },
    {
      "inputs": [],
      "name": "getParticipants",
      "outputs": [
        {
          "internalType": "address[]",
          "name": "",
          "type": "address[]"
        }
      ],
      "stateMutability": "view",
      "type": "function",
      "constant": true
    },
    {
      "inputs": [
        {
          "internalType": "address",
          "name": "targetAddress",
          "type": "address"
        }
      ],
      "name": "drop",
      "outputs": [],
      "stateMutability": "nonpayable",
      "type": "function"
    },
    {
      "inputs": [],
      "name": "totalSupply",
      "outputs": [
        {
          "internalType": "uint256",
          "name": "",
          "type": "uint256"
        }
      ],
      "stateMutability": "view",
      "type": "function",
      "constant": true
    },
    {
      "inputs": [
        {
          "internalType": "address",
          "name": "targetAddress",
          "type": "address"
        }
      ],
      "name": "getBalance",
      "outputs": [
        {
          "internalType": "uint256",
          "name": "",
          "type": "uint256"
        }
      ],
      "stateMutability": "view",
      "type": "function",
      "constant": true
    },
    {
      "inputs": [
        {
          "internalType": "uint256",
          "name": "tokenId",
          "type": "uint256"
        }
      ],
      "name": "tokenURI",
      "outputs": [
        {
          "internalType": "string",
          "name": "",
          "type": "string"
        }
      ],
      "stateMutability": "view",
      "type": "function",
      "constant": true
    },
    {
      "inputs": [],
      "name": "contractURI",
      "outputs": [
        {
          "internalType": "string",
          "name": "",
          "type": "string"
        }
      ],
      "stateMutability": "pure",
      "type": "function",
      "constant": true
    },
    {
      "inputs": [
        {
          "internalType": "address",
          "name": "targetAddress",
          "type": "address"
        }
      ],
      "name": "dropForOrganizer",
      "outputs": [],
      "stateMutability": "nonpayable",
      "type": "function"
    },
    {
      "inputs": [
        {
          "internalType": "address",
          "name": "winner",
          "type": "address"
        }
      ],
      "name": "beerPong",
      "outputs": [],
      "stateMutability": "nonpayable",
      "type": "function"
    }
  ],
  "bytecode": "0x600060085560e0604090815260808181529062001d0e60a03980516200002e91600a916020909101906200014d565b506000600b55600c805460ff191660011790553480156200004e57600080fd5b50604080518082018252601e81527f4166746572776f726b206279204c6143697479202d2032342f30362f3232000060208083019182528351808501909452601284527120ab902620a1a4aa2c90191a17981b17991960711b908401528151919291620000be916000916200014d565b508051620000d49060019060208401906200014d565b505050620000f1620000eb620000f760201b60201c565b620000fb565b6200022f565b3390565b600680546001600160a01b038381166001600160a01b0319831681179093556040519116919082907f8be0079c531659141344cd1fd0a4f28419497f9722a3daafe3b4186f6b6457e090600090a35050565b8280546200015b90620001f3565b90600052602060002090601f0160209004810192826200017f5760008555620001ca565b82601f106200019a57805160ff1916838001178555620001ca565b82800160010185558215620001ca579182015b82811115620001ca578251825591602001919060010190620001ad565b50620001d8929150620001dc565b5090565b5b80821115620001d85760008155600101620001dd565b600181811c908216806200020857607f821691505b6020821081036200022957634e487b7160e01b600052602260045260246000fd5b50919050565b611acf806200023f6000396000f3fe608060405234801561001057600080fd5b50600436106101585760003560e01c8063715018a6116100c3578063c87b56dd1161007c578063c87b56dd146102c6578063e8a3d485146102d9578063e985e9c5146102e1578063f2fde38b1461031d578063f8b2cb4f14610330578063faa6ad011461035957600080fd5b8063715018a61461026c5780638da5cb5b1461027457806391f2700a1461028557806395d89b4114610298578063a22cb465146102a0578063b88d4fde146102b357600080fd5b806342842e0e1161011557806342842e0e146102035780635aa68ac0146102165780636352211e1461022b57806365eadf1f1461023e5780636c0360eb1461025157806370a082311461025957600080fd5b806301ffc9a71461015d57806306fdde0314610185578063081812fc1461019a578063095ea7b3146101c557806318160ddd146101da57806323b872dd146101f0575b600080fd5b61017061016b366004611473565b61036c565b60405190151581526020015b60405180910390f35b61018d6103be565b60405161017c91906114ef565b6101ad6101a8366004611502565b610450565b6040516001600160a01b03909116815260200161017c565b6101d86101d3366004611537565b6104ea565b005b6101e26105ff565b60405190815260200161017c565b6101d86101fe366004611561565b610615565b6101d8610211366004611561565b610646565b61021e610661565b60405161017c919061159d565b6101ad610239366004611502565b6106c2565b6101d861024c3660046115ea565b610739565b61018d610791565b6101e26102673660046115ea565b61081f565b6101d86108a6565b6006546001600160a01b03166101ad565b6101d86102933660046115ea565b61090c565b61018d610a63565b6101d86102ae366004611605565b610a72565b6101d86102c1366004611657565b610a81565b61018d6102d4366004611502565b610ab9565b61018d610b52565b6101706102ef366004611733565b6001600160a01b03918216600090815260056020908152604080832093909416825291909152205460ff1690565b6101d861032b3660046115ea565b610b72565b6101e261033e3660046115ea565b6001600160a01b031660009081526009602052604090205490565b6101d86103673660046115ea565b610c3a565b60006001600160e01b031982166380ac58cd60e01b148061039d57506001600160e01b03198216635b5e139f60e01b145b806103b857506301ffc9a760e01b6001600160e01b03198316145b92915050565b6060600080546103cd90611766565b80601f01602080910402602001604051908101604052809291908181526020018280546103f990611766565b80156104465780601f1061041b57610100808354040283529160200191610446565b820191906000526020600020905b81548152906001019060200180831161042957829003601f168201915b5050505050905090565b6000818152600260205260408120546001600160a01b03166104ce5760405162461bcd60e51b815260206004820152602c60248201527f4552433732313a20617070726f76656420717565727920666f72206e6f6e657860448201526b34b9ba32b73a103a37b5b2b760a11b60648201526084015b60405180910390fd5b506000908152600460205260409020546001600160a01b031690565b60006104f5826106c2565b9050806001600160a01b0316836001600160a01b0316036105625760405162461bcd60e51b815260206004820152602160248201527f4552433732313a20617070726f76616c20746f2063757272656e74206f776e656044820152603960f91b60648201526084016104c5565b336001600160a01b038216148061057e575061057e81336102ef565b6105f05760405162461bcd60e51b815260206004820152603860248201527f4552433732313a20617070726f76652063616c6c6572206973206e6f74206f7760448201527f6e6572206e6f7220617070726f76656420666f7220616c6c000000000000000060648201526084016104c5565b6105fa8383610cc5565b505050565b6000600854600161061091906117b6565b905090565b61061f3382610d33565b61063b5760405162461bcd60e51b81526004016104c5906117ce565b6105fa838383610e2a565b6105fa83838360405180602001604052806000815250610a81565b6060600780548060200260200160405190810160405280929190818152602001828054801561044657602002820191906000526020600020905b81546001600160a01b0316815260019091019060200180831161069b575050505050905090565b6000818152600260205260408120546001600160a01b0316806103b85760405162461bcd60e51b815260206004820152602960248201527f4552433732313a206f776e657220717565727920666f72206e6f6e657869737460448201526832b73a103a37b5b2b760b91b60648201526084016104c5565b6006546001600160a01b031633146107635760405162461bcd60e51b81526004016104c59061181f565b600b805461078e91839190600061077983611844565b9091555061078990610bb86117b6565b610fc6565b50565b600a805461079e90611766565b80601f01602080910402602001604051908101604052809291908181526020018280546107ca90611766565b80156108175780601f106107ec57610100808354040283529160200191610817565b820191906000526020600020905b8154815290600101906020018083116107fa57829003601f168201915b505050505081565b60006001600160a01b03821661088a5760405162461bcd60e51b815260206004820152602a60248201527f4552433732313a2062616c616e636520717565727920666f7220746865207a65604482015269726f206164647265737360b01b60648201526084016104c5565b506001600160a01b031660009081526003602052604090205490565b6006546001600160a01b031633146109005760405162461bcd60e51b815260206004820181905260248201527f4f776e61626c653a2063616c6c6572206973206e6f7420746865206f776e657260448201526064016104c5565b61090a6000611108565b565b6006546001600160a01b031633146109365760405162461bcd60e51b81526004016104c59061181f565b6001600160a01b038116600090815260096020526040902054156109905760405162461bcd60e51b815260206004820152601160248201527006e6f20746f6b656e7320746f2064726f7607c1b60448201526064016104c5565b610bb8600854106109d35760405162461bcd60e51b815260206004820152600d60248201526c746f6f206d616e79206e66747360981b60448201526064016104c5565b6001600160a01b03811660009081526009602052604081208054916109f783611844565b90915550506007805460018101825560009182527fa66cc928b5edb82af9bd49922954155ab7b0942694bea4ce44661d9a8736c6880180546001600160a01b0319166001600160a01b0384161790556008805461078e92849290610a5a83611844565b91905055610fc6565b6060600180546103cd90611766565b610a7d33838361115a565b5050565b610a8b3383610d33565b610aa75760405162461bcd60e51b81526004016104c5906117ce565b610ab384848484611228565b50505050565b6000818152600260205260409020546060906001600160a01b0316610b205760405162461bcd60e51b815260206004820152601f60248201527f55524920717565727920666f72206e6f6e6578697374656e7420746f6b656e0060448201526064016104c5565b600a610b2b8361125b565b604051602001610b3c929190611879565b6040516020818303038152906040529050919050565b60606040518060800160405280604f8152602001611a4b604f9139905090565b6006546001600160a01b03163314610bcc5760405162461bcd60e51b815260206004820181905260248201527f4f776e61626c653a2063616c6c6572206973206e6f7420746865206f776e657260448201526064016104c5565b6001600160a01b038116610c315760405162461bcd60e51b815260206004820152602660248201527f4f776e61626c653a206e6577206f776e657220697320746865207a65726f206160448201526564647265737360d01b60648201526084016104c5565b61078e81611108565b6006546001600160a01b03163314610c645760405162461bcd60e51b81526004016104c59061181f565b600c5460ff16610caf5760405162461bcd60e51b81526020600482015260166024820152751899595c881c1bdb99c8185b1c9958591e481b5a5b9d60521b60448201526064016104c5565b600c805460ff1916905561078e8161208f610fc6565b600081815260046020526040902080546001600160a01b0319166001600160a01b0384169081179091558190610cfa826106c2565b6001600160a01b03167f8c5be1e5ebec7d5bd14f71427d1e84f3dd0314c0f7b2291e5b200ac8c7c3b92560405160405180910390a45050565b6000818152600260205260408120546001600160a01b0316610dac5760405162461bcd60e51b815260206004820152602c60248201527f4552433732313a206f70657261746f7220717565727920666f72206e6f6e657860448201526b34b9ba32b73a103a37b5b2b760a11b60648201526084016104c5565b6000610db7836106c2565b9050806001600160a01b0316846001600160a01b03161480610dfe57506001600160a01b0380821660009081526005602090815260408083209388168352929052205460ff165b80610e225750836001600160a01b0316610e1784610450565b6001600160a01b0316145b949350505050565b826001600160a01b0316610e3d826106c2565b6001600160a01b031614610ea15760405162461bcd60e51b815260206004820152602560248201527f4552433732313a207472616e736665722066726f6d20696e636f72726563742060448201526437bbb732b960d91b60648201526084016104c5565b6001600160a01b038216610f035760405162461bcd60e51b8152602060048201526024808201527f4552433732313a207472616e7366657220746f20746865207a65726f206164646044820152637265737360e01b60648201526084016104c5565b610f0e600082610cc5565b6001600160a01b0383166000908152600360205260408120805460019290610f37908490611933565b90915550506001600160a01b0382166000908152600360205260408120805460019290610f659084906117b6565b909155505060008181526002602052604080822080546001600160a01b0319166001600160a01b0386811691821790925591518493918716917fddf252ad1be2c89b69c2b068fc378daa952ba7f163c4a11628f55a4df523b3ef91a4505050565b6001600160a01b03821661101c5760405162461bcd60e51b815260206004820181905260248201527f4552433732313a206d696e7420746f20746865207a65726f206164647265737360448201526064016104c5565b6000818152600260205260409020546001600160a01b0316156110815760405162461bcd60e51b815260206004820152601c60248201527f4552433732313a20746f6b656e20616c7265616479206d696e7465640000000060448201526064016104c5565b6001600160a01b03821660009081526003602052604081208054600192906110aa9084906117b6565b909155505060008181526002602052604080822080546001600160a01b0319166001600160a01b03861690811790915590518392907fddf252ad1be2c89b69c2b068fc378daa952ba7f163c4a11628f55a4df523b3ef908290a45050565b600680546001600160a01b038381166001600160a01b0319831681179093556040519116919082907f8be0079c531659141344cd1fd0a4f28419497f9722a3daafe3b4186f6b6457e090600090a35050565b816001600160a01b0316836001600160a01b0316036111bb5760405162461bcd60e51b815260206004820152601960248201527f4552433732313a20617070726f766520746f2063616c6c65720000000000000060448201526064016104c5565b6001600160a01b03838116600081815260056020908152604080832094871680845294825291829020805460ff191686151590811790915591519182527f17307eab39ab6107e8899845ad3d59bd9653f200f220920489ca2b5937696c31910160405180910390a3505050565b611233848484610e2a565b61123f8484848461135c565b610ab35760405162461bcd60e51b81526004016104c59061194a565b6060816000036112825750506040805180820190915260018152600360fc1b602082015290565b8160005b81156112ac578061129681611844565b91506112a59050600a836119b2565b9150611286565b60008167ffffffffffffffff8111156112c7576112c7611641565b6040519080825280601f01601f1916602001820160405280156112f1576020820181803683370190505b5090505b8415610e2257611306600183611933565b9150611313600a866119c6565b61131e9060306117b6565b60f81b818381518110611333576113336119da565b60200101906001600160f81b031916908160001a905350611355600a866119b2565b94506112f5565b60006001600160a01b0384163b1561145257604051630a85bd0160e11b81526001600160a01b0385169063150b7a02906113a09033908990889088906004016119f0565b6020604051808303816000875af19250505080156113db575060408051601f3d908101601f191682019092526113d891810190611a2d565b60015b611438573d808015611409576040519150601f19603f3d011682016040523d82523d6000602084013e61140e565b606091505b5080516000036114305760405162461bcd60e51b81526004016104c59061194a565b805181602001fd5b6001600160e01b031916630a85bd0160e11b149050610e22565b506001949350505050565b6001600160e01b03198116811461078e57600080fd5b60006020828403121561148557600080fd5b81356114908161145d565b9392505050565b60005b838110156114b257818101518382015260200161149a565b83811115610ab35750506000910152565b600081518084526114db816020860160208601611497565b601f01601f19169290920160200192915050565b60208152600061149060208301846114c3565b60006020828403121561151457600080fd5b5035919050565b80356001600160a01b038116811461153257600080fd5b919050565b6000806040838503121561154a57600080fd5b6115538361151b565b946020939093013593505050565b60008060006060848603121561157657600080fd5b61157f8461151b565b925061158d6020850161151b565b9150604084013590509250925092565b6020808252825182820181905260009190848201906040850190845b818110156115de5783516001600160a01b0316835292840192918401916001016115b9565b50909695505050505050565b6000602082840312156115fc57600080fd5b6114908261151b565b6000806040838503121561161857600080fd5b6116218361151b565b91506020830135801515811461163657600080fd5b809150509250929050565b634e487b7160e01b600052604160045260246000fd5b6000806000806080858703121561166d57600080fd5b6116768561151b565b93506116846020860161151b565b925060408501359150606085013567ffffffffffffffff808211156116a857600080fd5b818701915087601f8301126116bc57600080fd5b8135818111156116ce576116ce611641565b604051601f8201601f19908116603f011681019083821181831017156116f6576116f6611641565b816040528281528a602084870101111561170f57600080fd5b82602086016020830137600060208483010152809550505050505092959194509250565b6000806040838503121561174657600080fd5b61174f8361151b565b915061175d6020840161151b565b90509250929050565b600181811c9082168061177a57607f821691505b60208210810361179a57634e487b7160e01b600052602260045260246000fd5b50919050565b634e487b7160e01b600052601160045260246000fd5b600082198211156117c9576117c96117a0565b500190565b60208082526031908201527f4552433732313a207472616e736665722063616c6c6572206973206e6f74206f6040820152701ddb995c881b9bdc88185c1c1c9bdd9959607a1b606082015260800190565b6020808252600b908201526a1b9bdd08185b1b1bddd95960aa1b604082015260600190565b600060018201611856576118566117a0565b5060010190565b6000815161186f818560208601611497565b9290920192915050565b600080845481600182811c91508083168061189557607f831692505b602080841082036118b457634e487b7160e01b86526022600452602486fd5b8180156118c857600181146118d957611906565b60ff19861689528489019650611906565b60008b81526020902060005b868110156118fe5781548b8201529085019083016118e5565b505084890196505b50505050505061192a611919828661185d565b64173539b7b760d91b815260050190565b95945050505050565b600082821015611945576119456117a0565b500390565b60208082526032908201527f4552433732313a207472616e7366657220746f206e6f6e20455243373231526560408201527131b2b4bb32b91034b6b83632b6b2b73a32b960711b606082015260800190565b634e487b7160e01b600052601260045260246000fd5b6000826119c1576119c161199c565b500490565b6000826119d5576119d561199c565b500690565b634e487b7160e01b600052603260045260246000fd5b6001600160a01b0385811682528416602082015260408101839052608060608201819052600090611a23908301846114c3565b9695505050505050565b600060208284031215611a3f57600080fd5b81516114908161145d56fe68747470733a2f2f6173736f6c61636974792e6472617a652e66722f6173736574732f6e6674732f4166746572576f726b42794c61436974793234303632322f636f6c6c656374696f6e2e6a736f6ea264697066735822122039722824e5d3730aa379ddfe25f2ec218e8164aec446ffa80d48f02aebe242ac64736f6c634300080e003368747470733a2f2f6173736f6c61636974792e6472617a652e66722f6173736574732f6e6674732f4166746572576f726b42794c61436974793234303632322f",
  "immutableReferences": {},
  "source": "// SPDX-License-Identifier: MIT\npragma solidity >=0.4.22 <0.9.0;\n\nimport \"@openzeppelin/contracts/token/ERC721/ERC721.sol\";\nimport \"@openzeppelin/contracts/access/Ownable.sol\";\n\ncontract AfterworkByLaCity240622 is ERC721, Ownable {\n    function toString(uint256 value) internal pure returns (string memory) {\n        if (value == 0) {\n            return \"0\";\n        }\n        uint256 temp = value;\n        uint256 digits;\n        while (temp != 0) {\n            digits++;\n            temp /= 10;\n        }\n        bytes memory buffer = new bytes(digits);\n        while (value != 0) {\n            digits -= 1;\n            buffer[digits] = bytes1(uint8(48 + uint256(value % 10)));\n            value /= 10;\n        }\n        return string(buffer);\n    }\n\n    address[] private participants;\n\n    function getParticipants() public view returns (address[] memory) {\n        return participants;\n    }\n\n    uint256 private supply = 0;\n\n    mapping(address => uint256) private balances;\n\n    string public baseURI =\n        \"https://assolacity.draze.fr/assets/nfts/AfterWorkByLaCity240622/\";\n\n    constructor()\n        ERC721(\"Afterwork by LaCity - 24/06/22\", \"AW LACITY 24/06/22\")\n    {}\n\n    function drop(address targetAddress) public {\n        require(msg.sender == owner(), \"not allowed\");\n        require(balances[targetAddress] == 0, \"no tokens to drop\");\n        require(supply < 3000, \"too many nfts\");\n        balances[targetAddress]++;\n        participants.push(targetAddress);\n        _mint(targetAddress, supply++);\n    }\n\n    function totalSupply() public view returns (uint256) {\n        return supply + 1;\n    }\n\n    function getBalance(address targetAddress) public view returns (uint256) {\n        return balances[targetAddress];\n    }\n\n    function tokenURI(uint256 tokenId)\n        public\n        view\n        override\n        returns (string memory)\n    {\n        require(_exists(tokenId), \"URI query for nonexistent token\");\n        return string(abi.encodePacked(baseURI, toString(tokenId), \".json\"));\n    }\n\n    function contractURI() public pure returns (string memory) {\n        return\n            \"https://assolacity.draze.fr/assets/nfts/AfterWorkByLaCity240622/collection.json\";\n    }\n\n    uint256 organizersSupply = 0;\n\n    function dropForOrganizer(address targetAddress) public {\n        require(msg.sender == owner(), \"not allowed\");\n        _mint(targetAddress, 3000 + organizersSupply++);\n    }\n\n    bool beerPongAvailable = true;\n\n    function beerPong(address winner) public {\n        require(msg.sender == owner(), \"not allowed\");\n        require(beerPongAvailable, \"beer pong already mint\");\n        beerPongAvailable = false;\n        _mint(winner, 8335);\n    }\n}\n",
  "sourcePath": "/Users/csimonmeunier/Desktop/LaCity/afterwork_nfts/nfts/contracts/AfterworkByLaCity240622.sol",
  "compiler": {
    "name": "solc",
    "version": "0.8.14+commit.80d49f37.Emscripten.clang"
  },
  "schemaVersion": "3.4.7",
  "updatedAt": "2022-06-23T08:26:33.756Z",
  "networkType": "ethereum",
  "devdoc": {
    "kind": "dev",
    "methods": {
      "approve(address,uint256)": {
        "details": "See {IERC721-approve}."
      },
      "balanceOf(address)": {
        "details": "See {IERC721-balanceOf}."
      },
      "getApproved(uint256)": {
        "details": "See {IERC721-getApproved}."
      },
      "isApprovedForAll(address,address)": {
        "details": "See {IERC721-isApprovedForAll}."
      },
      "name()": {
        "details": "See {IERC721Metadata-name}."
      },
      "owner()": {
        "details": "Returns the address of the current owner."
      },
      "ownerOf(uint256)": {
        "details": "See {IERC721-ownerOf}."
      },
      "renounceOwnership()": {
        "details": "Leaves the contract without owner. It will not be possible to call `onlyOwner` functions anymore. Can only be called by the current owner. NOTE: Renouncing ownership will leave the contract without an owner, thereby removing any functionality that is only available to the owner."
      },
      "safeTransferFrom(address,address,uint256)": {
        "details": "See {IERC721-safeTransferFrom}."
      },
      "safeTransferFrom(address,address,uint256,bytes)": {
        "details": "See {IERC721-safeTransferFrom}."
      },
      "setApprovalForAll(address,bool)": {
        "details": "See {IERC721-setApprovalForAll}."
      },
      "supportsInterface(bytes4)": {
        "details": "See {IERC165-supportsInterface}."
      },
      "symbol()": {
        "details": "See {IERC721Metadata-symbol}."
      },
      "tokenURI(uint256)": {
        "details": "See {IERC721Metadata-tokenURI}."
      },
      "transferFrom(address,address,uint256)": {
        "details": "See {IERC721-transferFrom}."
      },
      "transferOwnership(address)": {
        "details": "Transfers ownership of the contract to a new account (`newOwner`). Can only be called by the current owner."
      }
    },
    "version": 1
  },
  "userdoc": {
    "kind": "user",
    "methods": {},
    "version": 1
  }
}